:10000000EBEF00F00000000000EF00F00000000047
:0A0010000000000000000000F3D71C
:10001C00220E0C6E086A096A0A6A0B6A0C06D8B4BE
:10002C001FD0D8900B320A32093208320332023216
:10003C0001320032D8A0F2D70C06D8B409D0045043
:10004C0008260550092206500A2207500B22EAD72F
:10005C00045008260550092206500A2207500B228C
:02006C00120080
:10006E00140E1F6E1B0E1F5C13E28C6A8A421F5009
:10007E000001E825E96E000EE921EA6EEECF8CFF55
:10008E00270E0D6E0D2EFED7000000001F2AEAD798
:06009E007F0E8A6E1200C5
:1000A4000001ED6BEE6B1F6A290E1F5CD8B088D07F
:1000B4001F50E825E96E000EE921EA6EEE50000AB1
:1000C40001E17ED01F50E825E96E000EE921EA6EB9
:1000D400EE50400873E21F50E825E96E000EE92156
:1000E400EA6E410EEE5CEA6FEB6BEC6B800EEC1982
:1000F400006E800E005C02E1050EEB5D56E2050E1B
:10010400006E000E016E026E036EEAC004F0000E73
:10011400056E066E076E80DF220E0026020E012297
:10012400000E0222EB510024F66EEC510120F76E12
:10013400000EECBFFF0E0220F86E0900F5CF01F0AF
:100144000150000A2FE0200EED25EF6F000EEE2186
:10015400F06F050E006E000E016E026E036EEAC0B3
:1001640004F0000E056E066E076E56DF220E0026A2
:10017400020E0122000E0222EB510024F66EEC5115
:100184000120F76E000EECBFFF0E0220F86E09008E
:10019400F5CF00F0EFC0E1FFF0C0E2FF00C0E6FFE2
:1001A400ED4BEE2BEB4BEC2BA1D7200EED25E16EA6
:1001B400000EEE21E26EE66AED4BEE2B1F2A74D799
:0201C400120027
:1001C6000900F5CFE6FF0006FBE10106F9E11200A2
:1001D600480E156E4F0E166E4C0E176E410E186EAB
:1001E6004D0E196E550E1A6E4E0E1B6E440E1C6E7B
:1001F6004F0E1D6E1E6A7F0E8A6E936A8C6A956A12
:10020600150E0001E86F000EE96F49DF0001200EB0
:0C021600E86F000EE96F28DFF9D7FFD772
:100222001E05051E001F15150A000E111111001FD3
:1002320011110E001F151511001F050501000E11E9
:10024200151F001F04041F00111F11000004080FD6
:1002520000001F040A11001F101000001F020402F8
:100262001F1F0204081F0E11110E001F05050200B8
:100272000E111509161F050D1200121515090001A0
:100282001F0100000F10100F000F100F00000F10C1
:100292000C100F110A040A11110A04030011191596
:1002A2001311000000000000000000000000000028
:1002B200000000000000000000000000000000003C
:1002C200000000000000000000000000000000002C
:1002D200000000000000000000000000000000001C
:1002E200000000000000000000000000000000000C
:1002F20000000000000000000000000000000000FC
:1003020000000000000000000000000000000000EB
:1003120000000000000000000000000000000000DB
:1003220000000000000000000000000000000000CB
:1003320000000000000000000000000000000000BB
:1003420000000000000000000000000000000000AB
:10035200000000000000000000000000000000009B
:10036200000000000000000000000000000000008B
:10037200000000000000000000000000000000007B
:10038200000000000000000000000000000000006B
:10039200000000000000000000000000000000005B
:1003A200000000000000000000000000000000004B
:1003B200000000000000000000000000000000003B
:1003C200000000000000000000000000000000002B
:1003D200000000000000000000000000000000001B
:1003E200000000000000000000000000000000000B
:0B03F200000000000000000000000000
:020000040030CA
:0E00000000021F1EFF8381FF0FC00FE00F40A4
:00000001FF
