:1000000075EF00F00000000000EF00F000000000BD
:0A0010000000000000000000F3D71C
:10001C000B6A0A6A096A00500402F4CF09F0F3CFA4
:10002C0008F001500502F4CF0BF0F3CF0AF00050AA
:10003C000502F3500926F4500A22E86A0B220150FB
:10004C000402F3500926F4500A22E86A0B2208C075
:10005C0000F009C001F00AC002F00BC003F012005E
:10006C00CB50010F006E016A000E012216C004F085
:10007C00000E056ECDDF060E026E00C004F001C04E
:10008C0005F0025005E005320432059EFF0FFAD749
:10009C00040E016E04C000F0015004E00036009024
:1000AC00FF0FFBD7300E0014036E04C000F005C028
:1000BC0001F001320032019E01320032019E00C07B
:0C00CC00BEFF0F0EBD160350BD12120047
:0A00D8009494CA840C0EBD121200AD
:0800E200BE6ABD98BD9A120030
:1000EA00156ACA90CA927F0ECB6EF6DFF0DF156AE8
:1000FA00140E155C15E22E0E1524F66E010EF76E1F
:10010A00000EF722000EF86E000EF8220900F5CF55
:10011A0016F0A7DF210E0D6E0D2EFED7152AE8D791
:04012A00E6D7FFD73E
:10012E007F92A3B1B9BDB9B1A3927F6B5A4C444132
:04013E00444C5A6B68
:020000040030CA
:0D000100081F1EFF8381FF0FC00FE00F409E
:00000001FF
