:1000000026020400000000000000000000000000C4
:1000100000000000000000000000000000000000E0
:1000200000000000000000000000000000000000D0
:1000300000000000000200000000000000000000BE
:1000400000000000000000000000000000000000B0
:1000500000000000000000000000000000000000A0
:100060000000000000000000000000000000000090
:100070000000000000000000000000000000000080
:10044C000F802000F0BF200020A0B700000020008B
:10045C0034A0B700400020004420B700C822EF00B1
:10046C0000012000C0A2B700CC22EF000100210047
:10047C00400A2000108870008100200040092000F4
:10048C00108870000021EF00F0FF2F0002A1B700D0
:10049C000004280004A1B70000000000FEFF370094
:0404AC00FFFF370017
:100400003400F8003600F800801F7800200020003B
:100410000C000900B01F78000081BF00CCA2B7001B
:100420000021EF0071FF2F004008200010886000BD
:10043000A00120000C0009004F1078004F00780048
:0C0440003600F9003400F900004006000E
:0200000401F009
:200000000F000000FFFF00000700000082000000A50000005F000000F7000000C30000008C
:00000001FF
