:020000040000FA
:060000008A110A125828C3
:060008008A110A12A02873
:02000E000034BC
:020010000034BA
:0E001200831203138030A2003030A0003A08A1
:100020008400381C1628FF308000172880018312B6
:100030000313200884000008462083120313A10044
:100040003908840021088000831203132008353A00
:10005000031D312883120313381C302880173128E0
:10006000801338188009831203133A088400381C5F
:100070003B2822093C2822088000A20C831203138B
:10008000A00A2008383A031908000F288207C03454
:10009000F934A434B034993492348234F83480344E
:1000A000903488348334C634A13486348E34FF349B
:1000B0008316031789018316031386010715880128
:1000C000831203138601870188018312031304300E
:1000D00097008B170B17831603130C15831203134A
:1000E000013090000030B8000830B9000630BA0086
:1000F0000630BB001030B0001030B1001030B2003C
:100100001030B3001030B4001030B5001030B6001D
:100110001030B7008A110A12C120400E0F39B30007
:1001200040080F39B200410E0F39B50041080F39B0
:10013000B400420E0F39B6008A110A1209208A282B
:10014000A500030E8301A3000A08A4008A018312FC
:1001500003130C11831203138F018E0183120313F7
:10016000150883120313C4008312031316088312A5
:100170000313C30024088A00230E8300A50E250E56
:1001800009000F3083120313A600C001C101C20190
:1001900083120313C31FCD28CF284010D02840144A
:1001A000C00E403084000221C00E0221840A800E5D
:1001B0000221800E0221840A800E0221800EC30DCE
:1001C000C41FE328E5284310E6284314C40DC20DDC
:1001D000C11FEB28ED284210EE284214C10DC01FAC
:1001E000F228F4284110F5284114C00D831203139E
:1001F000A603031DC828C31FFE280029401001299B
:10020000401408000008F039B03E031C09293030C2
:04021000800708005B
:02400E00F43F7D
:02401000FF3F70
:00000001FF
