:1000000047EF00F00000000000EF00F000000000EB
:0A0010000000000000000000F3D71C
:10001C00FF0E156EFF0E166EFF0E176EFF0E186E8E
:10002C004C0E196E000E1A6E210E1B6E000E1C6EFD
:10003C00949A94969488C66A400EC76EC68A12002B
:10004C0021C0C9FFC7B002D00000FCD7C9CF00F057
:02005C00120090
:10005E00829020C000F0016A0F0E0014216E300E47
:0E006E002112EDDF1FC021F0EADF82801200B8
:10007C00938093820F0EC16E82809490F19EC8DFA4
:02008C00120060
:10008E00F6DF000E1D6E080E1E6E81B009D00F0E2B
:10009E001E5C02E1FF0E1D5C03E21D4A1E2A0ED0FD
:1000AE0081B20CD0000E006E1E50005C02E11D509D
:1000BE00000804E2010E1D5E000E1E5A1DC01FF048
:1000CE001EC020F0C5DF030E0C6E970E0D6E0D2EAA
:0E00DE00FED70C2EFCD700000000D7D7FFD7AE
:020000040030CA
:0D000100081F1EFF8381FF0FC00FE00F409E
:00000001FF
