:02000000C8280E
:10000600A53083120313FD00FD0B07280000000036
:020016000800E0
:100018008316031314191A281F301105F1007108EB
:10002800003A031D1A280130F0001B28F0010800CF
:1000380083120313A401A5012508123C031D2628D9
:1000480024088E3C031C32280C20700803192D2824
:1000580032288312A40A0319A50A20288312123011
:100068002502031D39288F302402031C3E287B30CB
:10007800F000442883161114111C43284028F0016D
:0200880008006E
:08008A00831603131115080091
:10009200831203138C11240893008316141D522813
:1000A2004E2883128C19562852288316111B5B285E
:0C00B200F0015E2811150230F00008007B
:1000BE0083160313141394130716871538308312FF
:0400CE009400080092
:1000D200831203138C118316911583128C197228C3
:1000E2006E281308F1002408003A031D7B288316AA
:1000F20091167D288316911283128C118316111684
:0E01020083128C19852881287108F0000800EE
:0E011000831603139114911C8E288B2808006F
:10011E0083120313A9012508F1000130F0007108C4
:10012E0003199D28F00D7010FF3E97287008A80047
:10013E002408840070080005F10071080130031DC9
:10014E000030F0002708F0060319C5282608003CE9
:10015E000318B52803200320A603AD282408840025
:10016E0028080005F10071080130031D0030F00071
:10017E002708F0060319C528FF30A9002908F0004A
:02018E00080067
:100190008316031788012F30031385000317890185
:1001A0000730031389008601831286010A30831603
:1001B00093005F2083120509A2000F30A2051C20C6
:1001C000A03083120313A400492083122208A40044
:1001D00049208820A1308312A40049208312A40161
:1001E00069207008A300452083122308860082300E
:1001F000FC00DD30FD00FD0BFB28FC0BFB280000A4
:1002000000000530A4000530A5000A30A600A701B3
:100210008F207008031926290809A3001C20A0308C
:1002200083120313A400492083122208A40049204A
:1002300083122308A400492045204130FC00EE3001
:10024000FD00FD0B2129FC0B21290000DA282729BC
:04400E00F22F000786
:00000001FF
