:1000000051EF04F00000000000EF00F000000000DD
:0A0010000000000000000000F3D71C
:10001C00086A096A100E0C6E013408360936045051
:10002C00085E0550D8A0053C095ED8B007D0045036
:10003C0008260550D8B0053C0926D8900036013664
:06004C000C2EEAD71200A1
:100052002E062E062EC001F02E060150000803E2E5
:1000620000000000F7D700000000000000000000C0
:0200720012007A
:100074000B6A0A6A096A086A0E6A0334083604506D
:10008400085E0550D8A0053C095E0650D8A0063C81
:100094000A5E0750D8A0073C0B5EE86AD8A0010EA0
:1000A4000E5E0336070E0C6E0334083609360A3624
:1000B4000B360E36045003A012D0085E0550D8A0AB
:1000C400053C095E0650D8A0063C0A5E0750D8A03D
:1000D400073C0B5EE86AD8A0010E0E5E11D008261C
:1000E4000550D8B0053C09260650D8B0063C0A266F
:1000F4000750D8B0073C0B26E86AD8B0010E0E268C
:1001040003360C2ED1D70234083609360A360B369C
:100114000E36045003A012D0085E0550D8A0053C4A
:10012400095E0650D8A0063C0A5E0750D8A0073CDA
:100134000B5EE86AD8A0010E0E5E11D008260550A9
:10014400D8B0053C09260650D8B0063C0A2607500C
:10015400D8B0073C0B26E86AD8B0010E0E2602364A
:10016400070E0C6E0234083609360A360B360E3684
:10017400045002A012D0085E0550D8A0053C095EC8
:100184000650D8A0063C0A5E0750D8A0073C0B5E78
:10019400E86AD8A0010E0E5E11D008260550D8B02A
:1001A400053C09260650D8B0063C0A260750D8B0AC
:1001B400073C0B26E86AD8B0010E0E2602360C2E38
:1001C400D1D70134083609360A360B360E360450B8
:1001D40002A012D0085E0550D8A0053C095E065066
:1001E400D8A0063C0A5E0750D8A0073C0B5EE86A1C
:1001F400D8A0010E0E5E11D008260550D8B0053CDB
:1002040009260650D8B0063C0A260750D8B0073C49
:100214000B26E86AD8B0010E0E260136070E0C6EC6
:100224000134083609360A360B360E36045001A05E
:1002340012D0085E0550D8A0053C095E0650D8A02F
:10024400063C0A5E0750D8A0073C0B5EE86AD8A0BB
:10025400010E0E5E11D008260550D8B0053C0926C3
:100264000650D8B0063C0A260750D8B0073C0B26E7
:10027400E86AD8B0010E0E2601360C2ED1D7003410
:10028400083609360A360B360E36045001A012D051
:10029400085E0550D8A0053C095E0650D8A0063C6F
:1002A4000A5E0750D8A0073C0B5EE86AD8A0010E8E
:1002B4000E5E11D008260550D8B0053C092606501C
:1002C400D8B0063C0A260750D8B0073C0B26E86A8B
:1002D400D8B0010E0E260036070E0C6E0034083618
:1002E40009360A360B360E36045000A012D0085ECA
:1002F4000550D8A0053C095E0650D8A0063C0A5E0D
:100304000750D8A0073C0B5EE86AD8A0010E0E5E29
:1003140011D008260550D8B0053C09260650D8B09F
:10032400063C0A260750D8B0073C0B26E86AD8B02A
:10033400010E0E2600360C2ED1D700B00ED004507C
:1003440008260550D8B0053C09260650D8B0063C0E
:0C0354000A260750D8B0073C0B26120008
:10036000400E006E1F0E016E000E026E036E120034
:10037000220E0C6E086A096A0A6A0B6A0C06D8B467
:100380001FD0D8900B320A320932083203320232BF
:1003900001320032D8A0F2D70C06D8B409D00450EC
:1003A00008260550092206500A2207500B22EAD7D8
:1003B000045008260550092206500A2207500B2235
:0203C000120029
:1003C200CEDFE80E046E030E056E000E066E076E9B
:1003D200CEDF00C02AF001C02BF002C02CF003C017
:1003E2002DF022C004F023C005F0000E066E076E49
:1003F20040DE00C02AF001C02BF002C02CF003C086
:100402002DF000C005F001C006F002C007F003C0E5
:1004120008F00832073206320532089E08320732E7
:1004220006320532089E05C000F006C001F007C082
:1004320002F008C003F00332023201320032039E9E
:1004420000C026F001C027F08ADF24C004F025C0D6
:1004520005F0000E066E076E8ADF26C009F027C07F
:100462000AF0000E0B6E0C6E030E086E09C004F04B
:100472000AC005F00BC006F00CC007F0085007E0F8
:1004820004360490053606360736FF0FF8D7F1DD3D
:1004920000C02AF001C02BF002C02CF003C02DF0E6
:1004A2000A0E046E000E056E26C000F027C001F091
:1004B200B4DD00C026F001C027F0000E015C02E1AD
:1004C200030E005C01E241D017C0E9FF18C0EAFF49
:1004D2002D50000808E12C50000805E12B500008BF
:1004E20002E12A5000082FE21650EF1227520DE0C7
:1004F200286A296A000E295C02E12750285C05E27D
:100502002E6AA6DD284A292AF5D726C02EF0A0DDBC
:100512001550EF1627520DE0286A296A000E295C51
:1005220002E12750285C05E22E6A92DD284A292A38
:10053200F5D726C02EF08CDD010E2A5E000E2B5A56
:0C0542002C5A2D5AC5D71550EF16120088
:10054E00060E226E010E236E20C024F021C025F06F
:04055E0031DF120077
:10056200C40E226E000E236E20C024F021C025F09E
:0405720027DF12006D
:10057600250E226E010E236E20C024F021C025F028
:040586001DDF120063
:10058A00DC0E226E000E236E20C024F021C025F05E
:04059A0013DF120059
:10059E00F60E226E000E236E20C024F021C025F030
:0405AE0009DF12004F
:1005B200100E226E030E236EFA0E246E000E256EAE
:0405C200FFDE120046
:1005C6004A0E226E010E236E20C024F021C025F0B3
:0405D600F5DE12003C
:1005DA00020E0C6E490E0D6E0D2EFED70C2EFCD798
:0605EA00000000001200F9
:1005F0005D0E226E010E236E20C024F021C025F076
:04060000E0DE120026
:10060400930E226E020E236EFA0E246E000E256ED9
:04061400D6DE12001C
:10061800BA0E226E020E236EFA0E246E000E256E9E
:04062800CCDE120012
:10062C001F6A1BC001F0010E006E015004E0003681
:10063C000090FF0FFBD700C01EF019C0E9FF1AC0D5
:10064C00EAFF0050EE14016E0152010ED8A4000E08
:10065C00006E1D50001A18E01C50000804E2B7DFB1
:10066C00B6DF1C06F9D719C0E9FF1AC0EAFF1E5005
:10067C00EE14016E0152010ED8A4000E006E1D5036
:0E068C00001A02E0FF0E1F6E1FC000F01200E9
:10069A0019C017F01AC018F01BC001F0010E006E45
:1006AA00015004E000360090FF0FFBD700C016F09F
:1006BA00001E00C015F0120E1924E96E000E1A2051
:1006CA00EA6E0050EF16120EE95E0050EF161200A5
:1006DA00040E196E010E1A6E820E1B6E000E1C6E2F
:1006EA00860E1D6E010E1E6E1DC020F01EC021F06A
:1006FA0065DF1DC020F01EC021F060DF19C020F0A8
:10070A001AC021F01FDF19C020F01AC021F02EDF15
:10071A0019C020F01AC021F051DF19C020F01AC008
:10072A0021F061DF1DC020F01EC021F047DF1DC08F
:10073A0020F01EC021F01ADF1DC020F01EC021F0DB
:10074A0001DF1DC020F01EC021F024DF1DC020F0F3
:10075A001EC021F0F7DE1DC020F01EC021F0F2DE1F
:10076A0019C020F01AC021F00BDF19C020F01AC0FE
:10077A0021F010DF19C020F01AC021F0E3DE19C001
:10078A0020F01AC021F0F2DE1DC020F01EC021F0B8
:10079A00D9DE1DC020F01EC021F0FCDE1DC020F0F5
:1007AA001EC021F0EDDE1DC020F01EC021F0D4DEF7
:1007BA001BC020F01CC021F02036209021362036A4
:1007CA0020902136DDDE19C020F01AC021F0D8DED3
:1007DA0019C020F01AC021F0B5DE1DC020F01EC0DD
:1007EA0021F001DF19C020F01AC021F0E7DE1DC098
:1007FA0020F01EC021F0A6DE1DC020F01EC021F090
:10080A00B5DE1BC020F01CC021F0D8DE1BC020F0D2
:10081A001CC021F0E8DE1BC020F01CC021F0CEDE97
:10082A001BC020F01CC021F0A1DE1BC020F01CC0A0
:10083A0021F088DE1BC020F01CC021F097DE1DC00D
:10084A0020F01EC021F07EDE19C020F01AC021F06F
:10085A0079DE19C020F01AC021F09CDE19C020F000
:08086A001AC021F06FDE12003C
:10087200C8DED1DE9DDE9CDEC4DECDDE99DE98DEF2
:10088200C0DEC9DE95DEBDDEC6DE92DE91DEB9DEF9
:10089200C2DE8EDE8DDE8CDEBEDEBDDEB2DE12009C
:1008A2000F0E946E830E196E0F0E1A6E030E1B6ED0
:1008B200F3DEE80E226E030E236EF40E246E010E9A
:1008C200256E7EDD820E196E0F0E1A6E1B6A010EE8
:1008D2001C6E010E1D6EA9DE005201E092DE82A0A6
:1008E20001D0FDD7820E196E0F0E1A6E010E1B6E0D
:1008F200010E1C6E010E1D6E98DE005201E08BDEB1
:1009020082A201D0FDD7820E196E0F0E1A6E020E50
:100912001B6E010E1C6E010E1D6E87DE005201E081
:10092200DBDE81A401D0FDD7820E196E0F0E1A6E86
:10093200030E1B6E010E1C6E010E1D6E76DE005242
:0E09420001E096DF81A601D0FDD7BCD7FFD71C
:020000040030CA
:0D000100220F0EFF0181FF0FC00FE00F4026
:00000001FF
