:10000000780B040000000000000000000000000069
:1000100000000000000000000000000000000000E0
:1000200000000000000000000000000000000000D0
:1000300000000000000000000000000000000000C0
:1000400000000000000000000000000000000000B0
:1016F0008F842000F0BF200020A0B7000000200051
:1017000034A0B700400020004420B7007C0C020049
:10171000000000008A1F78008B1F78008C1F780063
:1017200070F02F00A4A6B70030002000C6A6B700B6
:10173000F0FF2F002CA3B700AAFC07001AC0B300CB
:10174000E7FD0700CAC0B300E5FD07000C802000DC
:101750006B0020001A00200017FE07005C822000AA
:101760006B0020002A00200013FE07003803200031
:1017700057CE2D000E20ED00FEFF3A001020ED00A8
:10178000FCFF3A001AC0B300D5FD07004C812000D1
:101790001B0020001A00200007FE07008C8020009C
:1017A0005B0020002A00200003FE07000A582200E8
:1017B0000B0020004FFF0700A801200027E72600AC
:1017C0000E20ED00FEFF3A001020ED00FCFF3A0075
:1017D000E0FF2F002CA3B7004000200020A3B7009B
:1017E0002823EF003023EF003000210024A3B700AE
:1017F0002223EF0021E3A800D800200087732B00EC
:101800000E20ED00FEFF3A001020ED00FCFF3A0034
:10181000000000002023A9002003AE0002003700D2
:1018200000000000FCFF37000083BF008000EB00D9
:1018300050FD070002002000030A2400B0FB07004F
:101840000200200003482400AFFC0700E0418800AC
:10185000F1418800DC4180000005BE0003FE070066
:101860001AC0B3009EFD07000A18800092FC070012
:101870000C1880001B0020001A002000CEFD07007D
:08188000DDFF3700FFFF370018
:1009E4000000FA00E7FF0700E6FF0700C8A2A9001D
:1009F400C882A900C802A900C822A900C842A90047
:100A0400C862A900CCA2A900CC82A900CC62A9002A
:100A1400CC42A900CC22A900CC02A900CC22A80077
:100A2400CC02A800DCFF0700CBFF0700DAFF0700B9
:100A3400C9FF0700D8FF0700C7FF0700CC02A900C1
:100A4400D5FF0700C4FF0700D3FF0700CC22A9008D
:100A5400CC62A800D0FF0700BFFF0700CC62A9004A
:100A6400CC02A800CCFF0700CC02A900CAFF0700F3
:100A7400B9FF0700C8FF0700CC02A800C6FF0700A3
:100A8400B5FF0700CC02A900C3FF0700CC62A80091
:100A9400CC42A800CC22A800CC02A800BEFF0700CC
:100AA400ADFF0700808320001000A0000080FA0042
:040AB4000000060038
:10098800574123000E20ED00FEFF3A000000000052
:040998000000060055
:10099C000000FA00CCA2A80096FE0700CCA2A90089
:0C09AC0094FE07000080FA000000060026
:1004000000000000000000000000000000000000EC
:080410000000000000000600DE
:10095C00E73C22000E20ED00FEFF3A0000000000F4
:08096C0000000000000006007D
:100EE0000000FA008A80FB0002E0AE00CC62A9009C
:100EF00002E0AF00CC62A80002C0AE00CC42A90064
:100F000002C0AF00CC42A80002A0AE00CC22A900D3
:100F100002A0AF00CC22A8000280AE00CC02A90043
:100F20000280AF00CC02A800808320001000A60041
:100F3000CC82A8001000A700CC82A90097FE070071
:100F40000260AE00CC62A9000260AF00CC62A800D3
:100F50000240AE00CC42A9000240AF00CC42A80043
:100F60000220AE00CC22A9000220AF00CC22A800B3
:100F70000200AE00CC02A9000200AF00CC02A80023
:100F8000808320001000A600CC82A8001000A700DB
:100F9000CC82A90081FE0700808320001000A600FB
:100FA000020037006DFE07000100370071FE0700E8
:080FB0000080FA0000000600B9
:10097400370520000E20ED00FEFF3A0000000000C5
:040984000000060069
:100FB8000000FA008A1F78000A0037000A0820009B
:100FC800110037000A0C20000F0037004A092000E2
:100FD8000D0037004A0D20000B0037000A082000DA
:100FE800090037006150E100F4FF32006250E1006F
:100FF800F4FF32006350E100F4FF32006450E10076
:10100800F4FF3200F5FF370061805500000045000D
:101018000005780000457800AFFF070080832000B6
:101028001000A1000420EF00020046001004E000B8
:1010380007003200020046008A1F78001045780039
:101048005BFE07004F0578000420EC00F6FF370030
:10105800808320001000A0004F0578000080FA006F
:04106800000006007E
:1009B8000000FA00808320001000A1004601070013
:1009C800808320001000A0000080FA0000000600CC
:0009D8001F
:1014F4000800FA00E027200030428800F0FF2F00A7
:1015040020428800F0FF2F0010428800F0FF2F00D7
:10151400004288002022EF000000280022A2B70029
:101524002062A9002BFD07000001BE00803E2000C0
:101534000100200054FC07000001BE0051002000FF
:10154400600047000A88BE008100E90003003500FE
:101554001018D0001090D200FBFF3700829FBE000D
:101564008A9FBE000200BE000E0190009E01900002
:101574000002EB0010FC07004F05BE004F01BE0047
:1015840020079800310798008A9FBE000200BE0021
:101594000E0190009E0190000002EB00DDFB0700AD
:1015A4004F05BE008001780001027800600047000A
:1015B400B0007800200178000201D1008180D300BE
:1015C400640047003008E1002090E100070031008A
:1015D40061804100E0004A00800278000103780045
:1015E40005017800860178000200370003017800C5
:1015F400840178000280710032003A00F5FC070093
:101604000001BE00803E2000010020001EFC0700F7
:101614000001BE0031002000600047000A88BE00BF
:101624008100E900030035001018D0001090D200AA
:10163400FBFF3700829FBE000200BE000E01900037
:101644009E0190000002EB00DBFB07004F01BE008F
:1016540020079800310798000200BE000E01900098
:101664009E0190000002EB00AAFB070080017800B5
:101674000102780060004700B00078002001780083
:101684000201D1008180D300640047003008E100EA
:101694002090E1000700310061804100E0004A0031
:1016A4008002780001037800050178008601780043
:1016B4000200370003017800840178002062A8004A
:1016C4000000370061005100E0805900401188009B
:1016D4002222A90021E2A8002342A800E2FB07007D
:0C16E400E1FB07000080FA000000060097
:0C09D80000712200010020000000060059
:10066C0038002000A7B028000E20ED00FEFF3A0055
:10067C001020ED00FCFF3A00000000000000060016
:00068C006E
:10068C000000FA00020AB800500088000200B8000E
:10069C0081004200032AB800810042000080FA0069
:0406AC000000060044
:1005BC000000FA00020007003203040000000000F3
:1005CC000800E20002003A001000070000000600DC
:1005DC00811F78000200E20002003D006000100064
:1005EC00E08018000600E20002003D0060011100EE
:1005FC00E0811900050007004F00E00002003B00FD
:10060C0060001000E08018000000060002000700E7
:10061C000480BE00000006006022B8000602200024
:10062C000000D0008180D2000482D2008582D200EA
:10063C000000A8000202520083825A0003003B0013
:10064C000202420083824A000000A1000603E90076
:10065C00F3FF3A00000006000080FA0000000600DC
:00066C008E
:100518000000FA0002000700DA02040000000000F0
:100528000800E20002003A00100007000000060080
:10053800839F68000200E20002003D006000100096
:10054800E08018000600E20002003D006001110092
:10055800E0811900050007004F00E00002003B00A1
:1005680060001000E0801800000006006022B8005B
:10057800060220000000D0008180D2000482D20050
:100588008582D2000000A8000202520083825A002D
:1005980003003B000202420083824A000000A100DF
:1005A8000603E900F3FF3A00000006000080FA00A5
:0405B8000000060039
:10106C000600FA008A1F78008B1F78000820EF001A
:10107C0000002000404798000A0798001B079800C2
:10108C000E0190009E019000F0FF2F00F1FF2F0049
:10109C000010E1000198E10005003A003B832000BC
:1010AC000C0578007FFD070030C0B3000A01370043
:1010BC0015C0B3006000470063004000104078008A
:1010CC0000E0AE000C0037006000470063014000F8
:1010DC009280FB0000082000008068000049780026
:1010EC000A60EC00D0C2B300004E780061004600EC
:1010FC0000067800000037000E0090009E00900063
:10110C006000E1006088E10005003A001B832000CC
:10111C000C05780063FD07000020EF00EE0037009F
:10112C000E0190009E0190000000200001F82700A5
:10113C000010E1000198E10005003A00DB8220007C
:10114C000C05780057FD070005407800E2003700D9
:10115C0004417800821F78008C1F78008A9FBE00A3
:10116C000200200003F823000E0090009E00900067
:10117C00EDFD07000000E0000060EF0001003D0005
:10118C000060EC004F05BE004F0678004F01780060
:10119C000040E20011003200821F78008C1F7800A2
:1011AC008A9FBE000E0090009E009000020020005E
:1011BC00031224004FFD07004F05BE004F067800B8
:1011CC004F0178000007980011079800CE4090005E
:1011DC006400470061C85000DEFF3700024278000F
:1011EC00841F78008C1F78008A9FBE0002002000AC
:1011FC00031224000E0090009E00900038FD0700A2
:10120C000000E0000060EF00010035000060EC0021
:10121C004F05BE004F0678004F0278000040E200F8
:10122C0011003200841F78008C1F78008A9FBE004A
:10123C000E0090009E009000D2CC2C00C3DC23004A
:10124C002CFD07004F05BE004F0678004F027800BA
:10125C000007980011079800CE40900064004700EA
:10126C0061C84000DEFF3700600147001200BE007D
:10127C000000D0008180D200000798001107980070
:10128C00600047006300400090407800F0C7B30056
:10129C0000C1500060004700E300400010C0B300E4
:1012AC00804878008281FB00600147001200BE007C
:1012BC008301E900030035000000D0008180D200DA
:1012CC00FBFF3700000798001107980060004700EB
:1012DC0063004000010320001080FB0000804000F0
:1012EC00004E780061004600000678004E409000E9
:1012FC006104E100050035004E4090006604E100F9
:10130C0002003C000443780005003700E0C2B30043
:10131C00004E7800610046000006780016C0B3004D
:10132C0065C0B300602CE1002F0032006000470064
:10133C00E30040000020EF00804878006000470088
:10134C00B0017800200278008301D0000482D20022
:10135C008301D0000482D20060014700328041003A
:10136C00A2004A000007980011079800600147008E
:10137C001200BE000000D0008180D200000798004F
:10138C001107980060004700630040000103200033
:10139C001080FB0000804000004E78006100460089
:1013AC00000678006034E1000D003A004E409000D9
:1013BC000060ED00404798006004E10007003A002F
:1013CC00E0C2B300004E78006100460000067800D1
:1013DC0010C0B30000437800000037000000370055
:1013EC000A60ED00CFFF3700F0FF2F000000460031
:1013FC009040780000C3B300000CE10003003A00F9
:10140C006100560000067800F7FF3700F0FF2F0050
:10141C000000460090407800E0C2B300000CE100F0
:10142C0002003A0061005600000678004E40900021
:10143C006004E1002500320050C6B300004E780075
:10144C0061004600000678004E4090006004E10008
:10145C0007003D00D0C2B300004E7800610046008A
:10146C0000067800CE4090006400470060C8100071
:10147C00CE4190004E4090006904E1000A00360015
:10148C000380FB00A2002000110009000200D8001C
:10149C00800078000003200001004000004E78001E
:1014AC0061004600000678000380FB00A2002000CB
:1014BC00110009000200D8000003200001004000C8
:1014CC00004E780061004600000678000020EF0016
:1014DC00004E78000020EF00CF0578004F05780013
:0814EC000080FA000000060078
:1006B0000000FA000A00780000017800E101400023
:1006C0008B00780061804500800578001149780032
:1006D0001204E0000200320003007800F6FF370049
:0C06E0000A0078000080FA00000006000C
:100934000000FA0014002000B6FE07000080FA0050
:0409440000000600A9
:100418000000FA00020007007A0204000000000051
:10042800841F7800140007004F0078001100330083
:10043800F0FF2F00838F6C0006003B000405650069
:100448000A00A7000800370009F0A60010002000E5
:1004580008003700820F5400838F5C0003003900C6
:100468001000200001003E000000200009F0A70055
:100478000000EA00000006000084BE000600070035
:100488000083BE000485BE000280BE000200070093
:10049800844F750000000600C70ADE00F107B200AD
:1004A800F50FB20008003200E1CF4200020032002E
:1004B80002E0A80024000500810F7000010032004E
:1004C8000408050044000500810F700002003A008E
:1004D800140005008502E9000000400081C04800C2
:1004E800FCFF3B0002E0A800240005000080FA00A1
:0404F80000000600FA
:1006EC000000FA00F4FF2F0048FF07000080FA001A
:0406FC0000000600F4
:100700000000FA0002000700960404000000000048
:10071000889FBE008A9FBE008C1F780030000700B3
:100720003700330003866C006450E100240032007F
:100730006420E100270032006150E1002200320015
:100740006120E100210032008B854200EB07B100FF
:100750000134B800003AB8000804420089844A0015
:10076000013AB8000030B8008880400009014A0012
:10077000040033000000400081804800020149006D
:100780008B05E900C909DD0083017000010032001A
:1007900013002000C814DE004814DD004709DE0005
:1007A0001200B200C808DE000884700024000700B0
:1007B00001F0A1000CF0A70003E0A8001900370029
:1007C0006120E1001B0032000881BE000280BE00F3
:1007D000F7FF37006150E100FCFF3A0015003700D9
:1007E0000084BE003C0007000083BE000485BE00FC
:1007F0000280BE0038000700844F7500000006002C
:100800000280BE006450E100050036006420E10073
:10081000020036000968A30001003A000880BE000B
:1008200002C0A8004F0678004F05BE004F04BE006E
:1008300000000600F0FF2F00F1FF2700F9FF37004E
:1008400081002000618055000B003D000B0020005E
:1008500061FE2F000100E1001D0034008281710063
:10086000610164008904D1000884D3000000E8001D
:10087000FAFF3A007100200061006400030070007C
:10088000020060000900320061044400E0844C0072
:100890000988A500050032008B05E8006808E10022
:1008A00002003A008904D1000884D300F20F20002E
:1008B0000258E10005003D00C75DDD00F907B20008
:1008C0008980750008008800000006000BF82700EA
:1008D0001B00880000000500C70ADE00F107B20017
:1008E000F50FB20008003200E1CF420002003200F2
:1008F00002E0A80024000500810F70000100320012
:100900000408050044000500810F700002003A0051
:10091000140005008502E9000000400081C0480085
:10092000FCFF3B0002E0A800240005000080FA0064
:0409300000000600BD
:100AB8000200FA0000002000004798001A40780061
:100AC8006004E1000C0032008A1F78000085FB00FA
:100AD8009BFF07004F0578000E4090000060EC0077
:100AE800004798000080FB00000045009040780017
:100AF80001407800F2FF37000080FA00000006008D
:000B0800ED
:100948000000FA0030428000000001000080FA0038
:040958000000060095
:1004FC000000FA002302AF0001003700FDFF3700B7
:0C050C002A1188000080FA0000000600A0
:100D74000000FA00020007006C07040000000000F5
:100D84000400E20006003A000005EB000200E20065
:100D94000F003E000000E200270032000C00370084
:100DA400A10088000200E2000400350008003C00B5
:100DB4000000E2002000320005003700600010004F
:100DC400E080180002003B0001F02C001A003700FC
:100DD4000084BE006011B8006B0920000982CF00B6
:100DE400020039000882CF000441B0006942520079
:100DF4000E00320008003B00828171006101640032
:100E04008904D1000884D3008B05E8000442E8007B
:100E1400F9FF3A00050037000804440089844C00B7
:100E24008B05E9000442E900FBFF3A0003000700D8
:100E34000AF0A70003E0A8000000060081002000DB
:100E4400618055000B003D000B00200061FE2F0067
:100E54000100E1001D003400828171006101640021
:100E64008904D1000884D3000000E800FAFF3A00A6
:100E74007100200061006400030070000200600043
:100E84000900320061044400E0844C000988A50094
:100E9400050032008B05E8006808E10002003A0012
:100EA4008904D1000884D300F20F20000258E10025
:100EB40005003D00C75DDD00F907B20089807500BB
:100EC40008008800000006000BF827001B008800BB
:0C0ED400000005000080FA00000006008D
:100B08000000FA0002000700B6060400000000001A
:100B1800889FBE008A9FBE008C1F78003E00070099
:100B28004500330003866C006450E1002E0032005B
:100B38006420E100330032006150E1002F003200F0
:100B48006120E1003100320085855500EB07B000D7
:100B580009002000080420000500370008044400AC
:100B680089844C000A0031000603430087834B0048
:100B78000001530081815B00F8FF33000283BE004F
:100B88001000A8000804440089844C00F6FF3900CE
:100B9800C639DD0083017300010032001300200014
:100BA8008904D1000884D3000998A3000500320005
:100BB8000800A7000600A8008904D1000884D30013
:100BC8008B05E8008904D1000884D3000001EB00FC
:100BD8000281D2002800070001F0A1000CF0A70054
:100BE80003E0A8001D0037006420E1001F00320068
:100BF8000881BE000280BE00F7FF37006120E100D7
:100C08001A0032006000B800F3FF3700000020002F
:100C180001F82700F0FF37000084BE003C00070001
:100C28000083BE000485BE000280BE0038000700B5
:100C3800844F7500000006000280BE006450E10089
:100C4800050036006420E100020036000968A300B0
:100C580001003A000880BE0002C0A8004F067800D4
:100C68004F05BE004F04BE0000000600F0FF2F0035
:100C7800F1FF2700F9FF370081002000618055004F
:100C88000B003D000B00200061FE2F000100E10079
:100C98001D00340082817100610164008904D10063
:100CA8000884D3000000E800FAFF3A007100200031
:100CB8006100640003007000020060000900320057
:100CC80061044400E0844C000988A5000500320056
:100CD8008B05E8006808E10002003A008904D100A9
:100CE8000884D300F20F20000258E10005003D00FF
:100CF800C75DDD00F907B20089807500080088002B
:100D0800000006000BF827001B0088000000050003
:100D1800C70ADE00F107B200F50FB2000800320082
:100D2800E1CF42000200320002E0A80024000500E2
:100D3800810F70000100320004080500440005001E
:100D4800810F700002003A00140005008502E900D6
:100D58000000400081C04800FCFF3B0002E0A80002
:0C0D6800240005000080FA0000000600D6
:1018F8000180200040C428001A000900B0187800B0
:08190800B05878000000060051
:101888004C630000643400006269000074000000CA
:10189800456100007379000064730000504900003E
:0818A800433400004100000080
:1018B0006D6900006B7200006F4500006C650000F0
:1018C0006B740000726F00006E6900006B610000B5
:1018D00000650000786100006D7000006C6500001C
:1018E000004900004E46000000300000004E00009D
:0818F000614E00000000000041
:0200000401F009
:200000000F000000FFFF00000700000082000000A50000005F000000F7000000C30000008C
:00000001FF
