:1000000044020400000000000000000000000000A6
:1000100000000000000000000000000000000000E0
:1000200000000000000000000002000000000000CE
:1000300000000000000000000000000000000000C0
:1000400000000000000000000000000000000000B0
:1000500000000000000000000000000000000000A0
:100060000000000000000000000000000000000090
:10007000000000000000000022020000000000005C
:100080000000000000000000000000000000000070
:100090000000000000000000000000000000000060
:1000A0000000000000000000000000000000000050
:1000B0000000000000000000000000000000000040
:100488000F802000F0BF200020A0B700000020004F
:1004980034A0B700400020004420B700C022EF007D
:1004A800F0FF2F00C8A2B700F0FF2F002CA3B70061
:1004B800E00A200010407800E7407000E00A2000C1
:1004C8000148780001348000F00F2E0000806000A1
:1004D80080A6B7009400A8009680A8008400A90010
:1004E8008680A90000000000FEFF3700FFFF3700EC
:0004F80004
:100444003400F8003600F800801F780020002000F7
:100454000C000900B01F7800C482BF000020ED002A
:10046400C4A2B7008680A900A00120000C000900E6
:100474004F1078004F0078003600F9003400F9007E
:04048400004006002E
:100400003400F8003600F800801F7800200020003B
:100410000C000900B01F7800C482BF000020EC006F
:10042000C4A2B7008400A900A00120000C000900AC
:100430004F1078004F0078003600F9003400F900C2
:040440000040060072
:0200000401F009
:200000000F000000FFFF00000700000081000000A10000005F000000F7000000C300000091
:00000001FF
