:020000002D29A8
:0400060000000800EE
:10000A00083083120313FC002330FD00FD0B0B287C
:06001A00FC0B0B2808009E
:10002000103083120313FD00FD0B1428000008009C
:1000300083120313AE1B1E2888131F2888172E1B3C
:100040002328081324280817AE1A282888122928DC
:1000500088162E1A2D2808122E280816271832283E
:10006000081433280810881403208810AE193A2881
:1000700088133B2888172E193F2808134028081793
:10008000AE1844288812452888162E1849280812C8
:100090004A28081627184E2808144F2808108814D4
:1000A00003208810271C56280520572810200800F8
:1000B0008312031327102D08AE0018202714080000
:0E00C0008312031326088A0025088200080018
:1000CE00831203131A08F100981C6F2818121816C1
:0600DE007108F0000800AB
:1000E4008428803083120313A9009728C030A90004
:1000F40097289430A9009728D430A90097288030F5
:10010400A9009728831203132908013A03197328B5
:100114002908023A031978282908033A03197B2885
:100124002908043A03197E2881282A03F0002908A3
:10013400F0077008A9007008AE0018202710AC0161
:100144002C082B07840000080319B0282C082B075F
:1001540084000008AD005820AC0AA2282714080027
:1001640083160313881008100812881208138813C2
:1001740083128810081088130813881208120520A7
:1001840005200520881608168814032088100520E9
:100194008814032088100520881403208810052063
:1001A400081288140320881005208814032088105E
:1001B40088128817881403208810052088130816CD
:1001C400881403208810081288140320881005203E
:1001D400881403208810081688140320881005202A
:1001E4000812881403208810881708178816081620
:0C01F40088140320881005202714080040
:1002000060208A110A128000840AA50A0319A60A2E
:08021000F003031D00290800A2
:0E0218000030831203138C1A0130F00008002E
:100226008316031398169030831298008316871747
:10023600071383128C1E22291A08F0001C290800B5
:1002460083160313981829290000232983122908E5
:040256009900080003
:10025A00683083120313A0006F30A1006C30A20033
:10026A006130A300A40119308316990018151321CF
:10027A00B2200C30AE0018200130AE001820013038
:10028A00A9000130AA002030AB0072200C217008AE
:10029A000319D32967207008A80096298030AE0078
:1002AA001820D329C030AE001820D3299430AE00CC
:1002BA001820D329D430AE001820D3290130AE003B
:1002CA001820D3290230AE001820D3290C30AE00F2
:1002DA001820D3290E30AE001820D3290F30AE00D3
:1002EA001820D3291030AE001820D3291430AE00BC
:1002FA001820D3290C30AE001820D3290830AE00BC
:10030A001820D3291830AE001820D3291C30AE008B
:10031A001820D3292808AD0058202808A90023212D
:10032A00D3292808013A031953292808023A03193C
:10033A0057292808033A03195B292808043A03199C
:10034A005F292808053A031963292808063A031978
:10035A0067292808073A03196B292808083A031954
:10036A006F292808093A0319732928080A3A031930
:10037A00772928080B3A03197B2928080C3A03190C
:10038A007F2928080D3A0319832928080E3A0319E8
:10039A00872928080F3A03198B298F294B29D42931
:04400E00F22F000786
:00000001FF
