:040000003AEF00F0E3
:100008009EA002D09E908372A1A004D0A19083826A
:10001800CF6ACE6A9EAC11D09E9C20C0E1FF21C061
:10002800E2FFC3CFE6FF010E2024E16E000E21207F
:0C003800E26EC4CFE6FF83921580110039
:10004400FF0E166EFF0E176EFF0E186EFF0E196E62
:10005400FF0E1A6EFF0E1B6EFF0E1C6EFF0E1D6E42
:10006400949A94969488C66A400EC76EC68A120003
:10007400956A836A82909490CD8ECD8CCD98CD9ADA
:10008400CD96CD94CD92CD80B19CB1960B0EBA6E27
:10009400130EBC6E880EBB6E010EC26EC16ABE0E1C
:1000A400C06EF28EF28C9D80A0809D8C9E901E0E60
:1000B400206E000E216EC4DF15B01590FDD7FFD75A
:020000040030CA
:0D000100021F1EFF8381FF0FC00FE00F40A4
:00000001FF
