:020000009F2A35
:1000060083160313141911281F301105F100710806
:10001600003A031D11280130F0001228F0010800F3
:1000260083120313EA01EB016B08123C031D1D2822
:100036006A088E3C031C292803207008031924280B
:1000460029288312EA0A0319EB0A172883121230A9
:100056006B02031D30288F306A02031C35287B3063
:10006600F0003B2883161114111C3A283728F0019A
:02007600080080
:10007800831203138C116A0893008316141D4528F4
:10008800412883128C19492845288316111B4E28AC
:0C009800F001512811150230F0000800A2
:1000A400831203137008F100F0010830FC0071089A
:1000B400F40C03186128FC0B5A28F10100340310D6
:1000C4006628F40C0318F107F10CF00CFC0B632800
:0200D400080022
:0E00D600831603139114911C71286E280800E4
:1000E4000F30831203136805E9006808F000F00C70
:1000F400F013F00CF013F00CF013F00CF0130F30BD
:0E010400F0050A30F40052206908F0070800E8
:100112001320D03083120313EA003C2083126808B4
:06012200EA003C20080089
:10012800831203138C118316911583128C199D2841
:1001380099281308F1006808003A031DA6288316B9
:100148009116A8288316911283128C118316111602
:0E01580083128C19B028AC287108F000080042
:080166008316031311150800B4
:10016E00831603131413941307168715383083124E
:04017E0094000800E1
:10018200831603139818C7280000C1288312610838
:0401920099000800C8
:10019600831203137008E100E80189206B20D13037
:1001A6008312EA003C2001308312E8009420700894
:1001B600E5000130E80094207008E600E80194208C
:1001C6007008E700B32083126508E8007220700803
:1001D600E4006608E80072207008E3006708E8009B
:1001E60072207008E2000330F3006108F20062300A
:1001F600F100710884000008F0007208840070089D
:0E0206008000F20AF10AF303031DFC28080031
:0E0214008312031325088A00240882000800C4
:1002220083120313F8010830FC00700DF80D7408F6
:10023200F80203181E29F8070310F00DFC0B16290B
:020242000800B2
:1002440083120313DB01590884000008DA005A08FA
:10025400003A031937295A08E100C120DB0A5B0878
:0C026400590784000008DA00292908006E
:1002700083120313DB0103305B02031846295B087A
:100280005A07840020308000DB0A3B295B085A07AC
:1002900084008001DB035B085A07DC000A30F400AD
:1002A0005908F00011217808F0003030F0075C08A0
:1002B0008400700880000A30F4005908F000112111
:1002C0007008D9007008003A031D67296929DB030B
:0402D0004B290800AE
:1002D4005C3083120313F000CB200330F300593059
:1002E400F2005C30F100710884000008F00072082C
:1002F400840070088000F20AF10AF303031D7529D3
:060304005A08F000080099
:10030A005C3083120313F000CB200330F300593022
:10031A00F2005C30F100710884000008F0007208F5
:10032A00840070088000F20AF10AF303031D902981
:06033A005B08F000080062
:100340000A30831603139300B7204130FC00EE30CF
:10035000FD00FD0BA929FC0BA9290000E80189205B
:100360006B20D1308312EA003C2001308312E80078
:1003700094207008D9000130E80094207008DA0059
:100380000130E80094207008DB000130E800942080
:100390007008DC000130E80094207008DD000130B6
:1003A000E80094207008DE00E80194207008DF0067
:1003B000B3204130FC00EE30FD00FD0BDD29FC0BCD
:1003C000DD29000083125908E80072207008E0005F
:1003D00070083B3C0318ED29D9015A08E800722047
:1003E0007008E00070083B3C0318F729DA015B084D
:1003F000E80072207008E0007008173C0318012A1A
:10040000DB015C08E80072207008E0007008073C1F
:10041000031C0F2A6008003A03190F2A112A013021
:10042000DC005D08E80072207008E00070081F3CE6
:10043000031C1F2A6008003A03191F2A212A0130D1
:10044000DD005E08E80072207008E00070080C3CD7
:10045000031C2F2A6008003A03192F2A312A013081
:10046000DE005F08E80072207008E0007008633C5E
:1004700003183B2ADF01E801892083125908EA00AA
:100480003C2083125A08EA003C2083125B08EA00F1
:100490003C2083125C08EA003C2083125D08EA00DD
:1004A0003C2083125E08EA003C2083125F08EA00C9
:1004B0003C2010308312EA003C20B3204130FC0085
:1004C000EE30FD00FD0B622AFC0B622A00000800E2
:1004D000831603139816903083129800831687179B
:1004E000071383128C1E772A1A08F000712A08005D
:1004F0005C3083120313F000CB200330F30059303B
:10050000F2005C30F100710884000008F00072080D
:10051000840070088000F20AF10AF303031D832AA5
:060520005908F00008007C
:100526000A218A110A128000840AA40A0319A50A5C
:08053600F003031D932A0800E5
:10053E003A3083120313A000A1013A30A200A301A6
:10054E00A021193099001815682285217008D8004D
:10055E00852158087006031DC22A0230FB000430A4
:10056E00FC00BA30FD00FD0BBA2AFC0BBA2AFB0BBD
:10057E00BA2A0000AF2A78227008D8007008D90075
:10058E002630DA0038212630D90022212030D90039
:10059E0022216A217008D8007008D9002630DA00AE
:1005AE0038212630D90022212230D900222185215E
:1005BE007008D8007008D9002630DA0038212630AD
:1005CE00D90022210D30E100C1200A30E100C12006
:0405DE00AF2AF02A26
:04400E00F22F000786
:00000001FF
