:02000000DF28F7
:10000600A53083120313FD00FD0B07280000000036
:020016000800E0
:0E0018008312031325088A00240882000800C2
:1000260083120313B2012E08F1000130F0007108AB
:1000360003192128F00D7010FF3E1B287008B1002F
:100046002D08840070080005F10071080130031DB9
:100056000030F0003008F006031949282F08003C4C
:100066000318392803200320AF0331282D08840004
:1000760031080005F10071080130031D0030F00061
:100086003008F00603194928FF30B2003208F000A4
:02009600080060
:100098000C208A110A128000840AA40A0319A50AEE
:0800A800F003031D4C280800C1
:1000B000013083120313A600AC0102302C02031896
:1000C000DE28F0012719F00A700986000430FC00D0
:1000D000E430FD00FD0B6A28FC0B6A2800002608AE
:1000E000F300F30D73107308A6002C08F000F10163
:1000F000F00DF10D70107008203E840000087A3E6B
:10010000F00001300318013EF1007008A4007108EE
:10011000A5000C208A110A128800F0012719F00AA4
:100120007308F007700986000430FC00E430FD001D
:10013000FD0B9828FC0B98280000F0012719F00A05
:10014000700986000430FC00E430FD00FD0BA62899
:10015000FC0BA62800002C08F000F101F00DF10DB9
:100160007010F00A0319F10A7008203E840000089C
:10017000683EF00001300318013EF1007008A40051
:100180007108A5000C208A110A1288002608F100C7
:10019000F10D71107108A600F0012719F00A71081D
:1001A000F007700986000430FC00E430FD00FD0B10
:0E01B000D728FC0BD7280000AC0A5D280800F9
:1001BE0083120313A0010130A1000230A20003300C
:1001CE00A3008316031788018901FF3003138700EC
:1001DE0086018801FF30831286008701A710271041
:1001EE0027155030A8000030A90058200730AD0068
:1001FE00AE010130AF000130B000132070080319BA
:10020E000929A714A71C1A290730AD00AE01013029
:10021E00AF00B0011320700803191A29A00AA10A11
:10022E00A20AA30AA7100730AD000130AE000130BC
:10023E00AF000130B00013207008031927292714CE
:10024E00A71C46290730AD000130AE000130AF00CB
:10025E00B001132070080319462900302906031D2A
:10026E003A2950302806031D41292830A8000030B5
:10027E00A90045295030A8000030A9002710AA0A6D
:10028E000319AB0A29082B02031D4F2928082A023D
:10029E00031C5329AA01AB012B08003C031D59294D
:1002AE002A08283C031C5D292711662900302B02E1
:1002BE00031D632950302A02031866292715FC28CE
:0202CE0067299E
:1002D00003349F3425340D349934493441341F3468
:1002E000013409341134C1346334853461347134D8
:0402F00003349F3400
:1002F40003349F3429340D349534453441341F3448
:10030400013405341134C1346334893461347134B3
:0403140003349F34DB
:04400E00F22F000786
:00000001FF
