:0400000085EF08F090
:1000080000C023F001C022F002C021F003C020F09C
:1000180004C01FF005C01EF006C01DF007C01CF08C
:1000280008C01BF009C01AF00AC019F00BC018F07C
:100038000CC017F00DC016F00EC015F09EA002D02F
:100048009E908372A1A004D0A1908382CF6ACE6AC9
:100058009EAC76D19E9C8BC0E1FF8CC0E2FFC3CFE3
:10006800E6FF010E00018B25E16E000E8C21E26E89
:10007800C4CFE6FF9AC000F09BC001F0DDEC07F0AA
:10008800000E046E000E056E000E066E880E076EDA
:100098006BEC07F000C074F001C075F002C076F098
:1000A80003C077F0C90E046ECF0E056E140E066EEF
:1000B8007C0E076EF2EC07F000C0B8F001C0B9F092
:1000C80002C0BAF003C0BBF054C000F055C001F044
:1000D80056C002F057C003F0C90E046ECF0E056E6D
:1000E800140E066E7D0E076EF2EC07F0B8C004F031
:1000F800B9C005F0BAC006F0BBC007F09CDA00C072
:10010800B8F001C0B9F002C0BAF003C0BBF024C017
:1001180000F025C001F026C002F027C003F0C90E88
:10012800046ECF0E056E140E066E7C0E076EF2EC92
:1001380007F0B8C004F0B9C005F0BAC006F0BBC0FB
:1001480007F079DA00C0B8F001C0B9F002C0BAF01F
:1001580003C0BBF034C000F035C001F036C002F077
:1001680037C003F0900E046EC80E056E2B0E066E97
:100178007E0E076EF2EC07F0B8C004F0B9C005F0C7
:10018800BAC006F0BBC007F056DA00C0B8F001C02C
:10019800B9F002C0BAF003C0BBF064C000F065C09B
:1001A80001F066C002F067C003F0B20E046E300EB4
:1001B800056E010E066E7D0E076EF2EC07F000C0AC
:1001C80004F001C005F002C006F003C007F0B8C093
:1001D80000F0B9C001F0BAC002F0BBC003F06BEC8C
:1001E80007F000C044F001C045F002C046F003C06B
:1001F80047F034C064F035C065F036C066F037C0EB
:1002080067F000C034F001C035F002C036F003C01A
:1002180037F054C024F055C025F056C026F057C01A
:1002280027F074C054F075C055F076C056F077C00A
:1002380057F0000E046E000E056E000E066E880E56
:10024800076EF9D96FEC07F000C09AF001C09BF077
:100258000150A05D02E100509F5D05E29AC09FF049
:100268009BC0A0F014D00A0E9F5D016E000EA0592D
:10027800026E01C09FF002C0A0F0000E025C02E115
:10028800000E015C04E29AC09FF09BC0A0F095C0EC
:1002980000F0000E016E003600900136A10E002419
:1002A800E16E000E0120E26E9FC0E6FFA0C0E6FFEF
:1002B8009C6B9D6B9E6B000E006E8651005C02E18C
:1002C80085519E5D13E29EC000F0000E016E00365F
:1002D80000900136A10E0024D96E000E0120DA6EBE
:1002E800DE509C27DE509D239E2BE5D785C004F069
:1002F80086C005F09CC000F09DC001F070EC06F0CF
:1003080000C09CF001C09DF0952B984B992B000ED6
:10031800865D02E19551855DD8A0956B9C518D272E
:100328009D518E23000E8F2390239D51975D02E1EE
:100338009C51965D02E28C8001D08C9083928481DE
:1003480023C000F022C001F021C002F020C003F059
:100358001FC004F01EC005F01DC006F01CC007F049
:100368001BC008F01AC009F019C00AF018C00BF039
:0E03780017C00CF016C00DF015C00EF01100ED
:100386000B820BAECDEF01F00368026801680068CE
:080396000A360232FF0E1200CC
:0E039E00026A016A006A086A036A000E120011
:1003AC000B840BAEE1EF01F0010E036E026A016AE1
:0A03BC00006A0A360232FF0E12003A
:0803C6000AAE029E000E1200B7
:1003CE000CB029EF02F00CA2CFEF02F00E6A000E75
:1003DE00026440EF02F0F00E0214D8A40BEF02F00C
:1003EE00023A01380F0B02260138F00B016E00386D
:1003FE000F0B01260038F00B006E08380F0B00268D
:10040E000838F00B086E0E84D89002BE24EF02F06E
:10041E0008360036013602360E2A02BE24EF02F0EE
:10042E0008360036013602360E2A02BE24EF02F0DE
:10043E0008360036013602360E2A0E500364C5EF1A
:10044E0002F0035E0BBC08AECAEF02F0D880800E3D
:10045E0008640030000E002201220222D8A0CAEF4A
:10046E0002F0023201320032034ACFEF02F0CAEF3D
:10047E0002F001C002F000C001F008C000F0086AEE
:10048E00000E0E86026477EF02F0F00E0214D8A46E
:10049E005FEF02F0023A01380F0B02260138F00B23
:1004AE00016E00380F0B01260038F00B006E0E8423
:1004BE00D89002BE24EF02F00036013602360E2A24
:1004CE0002BE24EF02F00036013602360E2A02BEBC
:1004DE0024EF02F00036013602360E2A24EF02F027
:1004EE0001C002F000C001F0006A000E0E960E88E8
:1004FE000264A4EF02F0F00E0214D8A48FEF02F003
:10050E00023A01380F0B02260138F00B016E0E84F1
:10051E00D89002BE24EF02F0013602360E2A02BE39
:10052E0024EF02F0013602360E2A02BE24EF02F04C
:10053E00013602360E2A24EF02F001C002F0016AE3
:10054E00000E0E860264D4EF02F0F00E0214D8A450
:10055E00B3EF02F0023A0E84D89002BE24EF02F0FE
:10056E0002360E2A02BE24EF02F002360E2A02BE18
:10057E0024EF02F002360E2A24EF02F0010E0C6E6A
:10058E000EDFD7EF02F0020E0C6E16DFD7EF02F081
:10059E00040E0C6EF1DED7EF02F0080E0C6EF8DED4
:0205AE00120039
:1005B0000B800BAEE4EF02F0026A0AAEFF0E026E91
:0C05C000016E006E0A360232FF0E1200BF
:1005CC000C6A0E6A0250D8A4FFEF02F001C002F0D0
:1005DC0000C001F0006A0E860250D8A4FFEF02F0B2
:1005EC0001C002F0016A0E960E880250D8B411EFC9
:1005FC0003F00E50035ED8A4D8A016EF03F0D890E9
:10060C0002BE1BEF03F0003601360236032E06EF56
:10061C0003F016EF03F0010E0C6EBBDE1EEF03F0C1
:10062C00020E0C6EBDDE1EEF03F0040E0C6EC5DE6A
:02063C001200AA
:10063E00025006180E6E086A096A0B6A03500764A8
:10064E0012EF04F006500A6E068E028E03500B6EE9
:10065E000750036E000E0B6462EF03F00B50075E43
:10066E00D8B403EF04F0070E0764D1EF03F0075E72
:10067E0000C008F001C000F002C001F0026A074E8F
:10068E0003EF04F00764A6EF03F0075E00C008F066
:10069E0001C000F0016A074E03EF04F0076484EF17
:1006AE0003F0075E00C008F0006A074E03EF04F087
:1006BE0007646BEF03F00AC002F005C001F004C03E
:1006CE0000F0086A2CEF05F0030E076476EF03F0D6
:1006DE00075E08380F0B086E074E03EF04F0D89034
:1006EE000832074E03EF04F0D8900832074E03EF9E
:1006FE0004F0D890083203EF04F0030E076495EF70
:10070E0003F0075E08380F0B086E0038F00B082652
:10071E0000380F0B006E074E03EF04F0D890003236
:10072E000832074E03EF04F0D89000320832074E1D
:10073E0003EF04F0D8900032083203EF04F0030EFA
:10074E000764BDEF03F0075E08380F0B086E003824
:10075E00F00B082600380F0B006E0138F00B002648
:10076E0001380F0B016E074E03EF04F0D8900132E3
:10077E0000320832074E03EF04F0D89001320032F7
:10078E000832074E03EF04F0D890013200320832DF
:10079E0003EF04F0030E0764EEEF03F0075E083874
:1007AE000F0B086E0038F00B082600380F0B006E8A
:1007BE000138F00B002601380F0B016E0238F00BDA
:1007CE00012602380F0B026E074E03EF04F0D8908D
:1007DE000232013200320832074E03EF04F0D89095
:1007EE000232013200320832074E03EF04F0D89085
:1007FE000232013200320832096A000E0EAEF7EFF5
:10080E0004F0081E001E011E021E082A00220122EC
:10081E000222F7EF04F00750D8A418EF04F02CEFE3
:10082E0005F0096A02C00AF0028E068E0750035CBC
:10083E00076ED8B4EAEF04F0070E0764B8EF04F0C1
:10084E00075E0450096E0550046E0650056E066A6A
:10085E00074EEAEF04F0070E07648DEF04F0075E13
:10086E000450096E0550046E056A074EEAEF04F057
:10087E00070E07646BEF04F0075E0450096E046AFE
:10088E00074EEAEF04F0070E076452EF04F00AC0B9
:10089E0002F02CEF05F0030E07645DEF04F0075E27
:1008AE0009380F0B096E074EEAEF04F0D8900932A3
:1008BE00074EEAEF04F0D8900932074EEAEF04F043
:1008CE00D8900932EAEF04F0030E07647CEF04F0CF
:1008DE00075E09380F0B096E0438F00B0926043831
:1008EE000F0B046E074EEAEF04F0D8900432093273
:1008FE00074EEAEF04F0D89004320932074EEAEFC1
:10090E0004F0D89004320932EAEF04F0030E0764C3
:10091E00A4EF04F0075E09380F0B096E0438F00BD4
:10092E00092604380F0B046E0538F00B0426053823
:10093E000F0B056E074EEAEF04F0D8900532043225
:10094E000932074EEAEF04F0D8900532043209322C
:10095E00074EEAEF04F0D890053204320932EAEF7E
:10096E0004F0030E0764D5EF04F0075E09380F0B91
:10097E00096E0438F00B092604380F0B046E053887
:10098E00F00B042605380F0B056E0638F00B052606
:10099E0006380F0B066E074EEAEF04F0D8900632BB
:1009AE00053204320932074EEAEF04F0D8900632CF
:1009BE00053204320932074EEAEF04F0D8900632BF
:1009CE00053204320932086A000E0EAEF7EF04F05B
:1009DE00091E041E051E061E092A042205220622D1
:1009EE00095008260450002205500122065002220A
:1009FE000EBE0EEF05F0D8A01DEF05F0023201324B
:100A0E0000320832033E1DEF05F027EF05F0D8B097
:100A1E0022EF05F0000E081E001E011E021E082AFF
:100A2E000022012202220A7E22EF05F0010E0C6E38
:100A3E00C7DC2EEF05F0020E0C6EC2DC2EEF05F0B9
:100A4E00040E0C6E99DC2EEF05F0000E0C6E1200EB
:100A5E00B7C0C9FFC7B002D00000FCD7C9CF00F0A5
:020A6E00120074
:100A70000450085E0550D8A0053C095E0650D8A079
:100A8000063C0A5E0750D8A0073C0B5E0336070EF3
:100A90000C6E0334083609360A360B36045003A0B0
:100AA0000ED0085E0550D8A0053C095E0650D8A0BF
:100AB000063C0A5E0750D8A0073C0B5E0DD0082606
:100AC0000550D8B0053C09260650D8B0063C0A2689
:100AD0000750D8B0073C0B2603360C2EDAD7023469
:100AE000083609360A360B36045003A00ED0085ECD
:100AF0000550D8A0053C095E0650D8A0063C0A5E09
:100B00000750D8A0073C0B5E0DD008260550D8B082
:100B1000053C09260650D8B0063C0A260750D8B036
:100B2000073C0B260236070E0C6E023408360936D7
:100B30000A360B36045002A00ED0085E0550D8A02D
:100B4000053C095E0650D8A0063C0A5E0750D8A0B6
:100B5000073C0B5E0DD008260550D8B0053C092691
:100B60000650D8B0063C0A260750D8B0073C0B26E2
:100B700002360C2EDAD70134083609360A360B361F
:100B8000045002A00ED0085E0550D8A0053C095EB6
:100B90000650D8A0063C0A5E0750D8A0073C0B5E62
:100BA0000DD008260550D8B0053C09260650D8B00F
:100BB000063C0A260750D8B0073C0B260136070E24
:100BC0000C6E0134083609360A360B36045001A083
:100BD0000ED0085E0550D8A0053C095E0650D8A08E
:100BE000063C0A5E0750D8A0073C0B5E0DD00826D5
:100BF0000550D8B0053C09260650D8B0063C0A2658
:100C00000750D8B0073C0B2601360C2EDAD700343B
:100C1000083609360A360B36045001A00ED0085E9D
:100C20000550D8A0053C095E0650D8A0063C0A5ED7
:100C30000750D8A0073C0B5E0DD008260550D8B051
:100C4000053C09260650D8B0063C0A260750D8B005
:100C5000073C0B260036070E0C6E003408360936AA
:100C60000A360B36045000A00ED0085E0550D8A0FE
:100C7000053C095E0650D8A0063C0A5E0750D8A085
:100C8000073C0B5E0DD008260550D8B0053C092660
:100C90000650D8B0063C0A260750D8B0073C0B26B1
:100CA00000360C2EDAD700B00ED0045008260550BE
:100CB000D8B0053C09260650D8B0063C0A26075095
:080CC000D8B0073C0B2612001E
:100CC8000B1E0A1E091E081E082AD8B4092AD8B401
:080CD8000A2AD8B40B2A12000D
:100CE000086A096A100E0C6E013408360936045081
:100CF000085E0550D8A0053C095ED8B007D0045066
:100D000008260550D8B0053C0926D8900036013693
:060D10000C2EEAD71200D0
:100D16008290B6C000F0016A0F0E00140001B76F92
:100D2600300EB71399DEB5C0B7F096DE82800001AB
:040D36008491120092
:100D3A000450000A12E10550000A0FE10650000AA9
:100D4A000CE10750000A09E1FF0E006EFF0E016E6A
:100D5A00FF0E026E7F0E036E97D00C6A07BE0C2A36
:100D6A000D6A0B6A0A6A096A086A035002100110BE
:100D7A000010D8B484D0035007180E6E0EBE0D1E94
:100D8A0007AE0BD0041E051E061E071E042AD8B481
:100D9A00052AD8B4062AD8B4072A03AE0BD0001EF7
:100DAA00011E021E031E002AD8B4012AD8B4022A40
:100DBA00D8B4032A035007100E6E0EBE1CD053DEA1
:100DCA000CBE36D00DAE5BD0001E011E021E031EE5
:100DDA00002AD8B4012AD8B4022AD8B4032A081E91
:100DEA00091E0A1E0B1E082AD8B4092AD8B40A2AD0
:100DFA00D8B40B2A44D007AE15D003BE0DD0035089
:100E0A000B6E02500A6E0150096E0050086E036A9A
:100E1A00026A016A006AD6D7036A026A016A006A2C
:100E2A00002A000C031E021E011E001E0C8EC7D7CC
:100E3A00082AD8B4092AD8B40A2AD8B40B2A0450E2
:100E4A00085CD8A4BFD70550095CD8A4BBD7065004
:100E5A000A5CD8A4B7D707500B5CD8A4B3D70B6ADF
:100E6A000A6A096A086A002AD8B4012AD8B4022A86
:100E7A00D8B4032A03AEA6D70E6A0E88FF0C0E6AF0
:0A0E8A000CA001D01CDF000F1200C5
:100E94000900F5CFE6FF0006FBE10106F9E11200C7
:100EA400FF0E0001876FFF0E886FFF0E896FFF0E24
:100EB4008A6F5E0E916F0A0E926FB70E936F000EDB
:100EC400946F949A94969488C66A400EC76EC68AA4
:020ED40012000A
:080ED600067E1FEC03F0120080
:100EDE000B6A0C6A0A6A0350D8B4B9EF07F0028E97
:100EEE008E0E035E03BE81EF07F0D8B481EF07F0DC
:100EFE00BDEF07F0036C080E035CD8A098EF07F067
:100F0E00036E013602C001F0026A080E035CD8A01F
:100F1E0098EF07F00136016A0350D8A4D890A2EFDB
:100F2E0007F00350D8B4A2EF07F0D8900232013286
:100F3E00032E9CEF07F00BBC01A0AFEF07F0D8A07B
:100F4E00AFEF07F0012AD8B4022A02BECCEF07F0A9
:100F5E000AAED2EF07F0021E011E012AD8B4022AF1
:100F6E00D2EF07F0026A016AD2EF07F00B800BAEE8
:100F7E00D6EF07F0026A0AAED6EF07F0FF0E026E4A
:100F8E00016E0A360232D6EF07F0010E0C6ED8EC67
:100F9E0002F0D8EF07F0000E0C6ED8EF07F0FF0E40
:0C0FAE000C6E0150006E0250016E12002B
:100FBA000050086E0150006E016A026A036A0B6AE9
:100FCA000C6A960E036E0A6A00C001F008C000F0AF
:0A0FDA00086A026AE6EC02F0120059
:100FE400086A096A000E0762036477EF08F002508A
:100FF40006180A6E075003267E0ED8A008EF08F0E4
:10100400035ED8B07CEF08F00CEF08F0035ED8A0C4
:1010140081EF08F0028E068E02C00EF001C00BF0C4
:1010240000C00DF000500402F4CF0CF00150050292
:10103400F4CF00F0F3CF08F00402F3500C26F45080
:101044000822000E00220D500502F3500C26F45025
:101054000822000E002202500402F3500826F45025
:10106400002202500502016A000E0122F3500026FC
:10107400F45001220D500602F3500826F4500022C9
:10108400026A000E012202220B500602F3500026CF
:10109400F4500122000E02220E500602F3500126E3
:1010A400F450022202BE5FEF08F008360036013623
:1010B40002360306D8B481EF08F072EF08F0D88046
:1010C400800E08640030000E002201220222D8A003
:1010D40072EF08F0023201320032034A7CEF08F06A
:1010E4000AAE029E000E84EF08F0010ECFEC01F070
:1010F40084EF08F0020EC3EC01F084EF08F0040E54
:06110400D6EC01F0120020
:10110A0024EC09F0F00E936E8A808A928A948A9669
:10111A00956A836A82909490CD8ECD8CCD98CD9A23
:10112A00CD96CD94CD92CD80B19CB1960B0EBA6E70
:10113A000F0EBC6EA00EBB6E010EC26EC16A820E8D
:10114A00C06E0001956B986B996B966B976B0A0E44
:10115A00856F000E866FF28EF28C9D80A0809D8C2A
:10116A009E909A0E8B6F000E8C6F97DE81BE04D014
:10117A0081BE01D0FDD78A7084A10CD09AC0B5F087
:10118A009BC0B6F0B537B591B637B537B591B63716
:10119A00BDDD84919951030802E19851E8081DE2E6
:1011AA0098C004F099C005F0000E066E076E8DC057
:1011BA0000F08EC001F08FC002F090C003F0B8DDDD
:1011CA00140E00240001966F000E0120976F986B91
:0E11DA00996B8D6B8E6B8F6B906BC8D7FFD7A8
:1012480010EE24F0600E006E010E016EE80EF66ED0
:0E125800110EF76E000EF86E4AEC07F0120051
:1011E80000000000000000000000000000000000F7
:1011F80000000000000000000000000000000000E7
:1012080000000000000000000000000000000000D6
:1012180000000000000000000000000000000000C6
:1012280000000000000000000000000000000000B6
:1012380000000000000000000000000000000000A6
:020000040030CA
:0D000100061F1EFF8381FF0FC00FE00F40A0
:00000001FF
