:02000000C12815
:10000800FF00030E8301A7000A08A6008A010C1C42
:1000180012280C1065308E0072308F0026088A0076
:0A002800270E8300FF0E7F0E090073
:0E0032008312031325088A00240882000800A8
:10004000710DF80DF90D7408F8027508031C750F91
:10005000F902F00DF10D0F30FC00710DF80DF90DE6
:100060007408701C3928F8027508031C750FF90212
:100070003E28F80775080318750FF907F00DF10D04
:10008000FC0B2D2870184A287408F8077508031807
:08009000750FF90700000800DC
:10009800831203137408003A031D5B287508003A9D
:1000A800031D5B28FF30F0007F30F100B428831275
:1000B8000313FD01F901F8017108700403190034F4
:1000C80071087506FA00FA1BFD09FB01F51F712876
:1000D800F409F509F40A0319F50AF11F7828F0095B
:1000E800F109F00A0319F10A71087504FA00FA1BFC
:1000F8008D2820207B18A028FD1F0034F009F10965
:10010800F00A0319F10AF809F909F80A0319F90AB2
:100118000034F51F9C28F11B98287108F900700815
:10012800F800F101F0018028F101F001F00A003433
:10013800F109F009FB0A7D28F80A0319F90A74087D
:100148007802031D802875087902031D8028F901AB
:10015800F801F00A0319F10AF11F80280000FF34A2
:0201680008008D
:10016A0019208A110A128000840AA40A0319A50A0E
:08017A00F003031DB528080085
:1001820008308312031390008B170B1783160C147D
:10019200653083128E0072308F008316061383122D
:1001A2000613861383168617861283128612831607
:1001B20006128312061206171830FD00FD0BDF2807
:1001C2000000000006131014861BE828E528861F8D
:1001D200EB28E828101006160F08A200A301220837
:1001E200F100F0017008A2007108A3000E08F007E8
:1001F2000318F10A7008A2007108A30065307002AA
:10020200F3007230031C013E7102F4007308F00027
:100212007408F100F00DF10D70109130F400F50149
:100222004C207008A0007108A1008030F2008030DC
:1002320071067202031D1F2970080F3C031C22293C
:060242008616DC282329CA
:02400E004A2F37
:00000001FF
