:02000000702866
:10000600023083120313FC004930FD00FD0B092862
:0A001600FC0B0928000000000800A0
:100020008316031387128711071683129401403039
:0A0030008316940083129416080052
:10003A008312031324089300831614182628000039
:0A004A00212883121308F0000800BB
:100054008312031324089300831614183328000012
:0A0064002E2883121308F000080094
:10006E0083120313A9012508F1000130F000710875
:10007E0003194528F00D7010FF3E3F287008A800A8
:10008E002408840070080005F10071080130031D7A
:10009E000030F0002708F00603196D282608003CF2
:1000AE0003185D2803200320A60355282408840086
:1000BE0028080005F10071080130031D0030F00022
:1000CE002708F00603196D28FF30A9002908F00053
:0200DE00080018
:1000E000831603178801FF30031385000317890166
:1000F000031389018601FF30880083128601871768
:1001000083168713102087170F300505A200871369
:100110000330A4001D202208A4001D20A4012A20D1
:100120007008A3008717700886000230FB000430B7
:10013000FC00BA30FD00FD0B9B28FC0B9B28FB0B41
:100140009B2800000530A4000430A5000A30A6005A
:10015000A701372070080319C9280809A3008713CD
:100160000630A4001D20871787130230A4001D202D
:100170002208A4001D202308A4001D208717823018
:10018000FC00DD30FD00FD0BC328FC0BC328000084
:10019000000087130530A4001D20A4012A20700848
:0801A000890087178428D32889
:04400E00F22F000786
:00000001FF
