:1000000071EF3AF00000000000EF00F00000000087
:0A0010000000000000000000F3D71C
:10001C007CC7C9FFC7B002D00000FCD7C9CF00F025
:02002C001200C0
:10002E00F250026EF29E0500FF6A0150FE6E005005
:08003E00FD6E02BEF28E1200FD
:100046008280C9C3E1FFCAC3E2FFFF0EE66EC7C3E3
:0A00560000F0C8C301F0E8DF12005B
:10006000400E07017325006EC9C3E1FFCAC3E2FF5A
:1000700000C0E6FFC7C300F0C8C301F0D8DFC9C3A2
:10008000E1FFCAC3E2FF77C7E6FFC7C300F0C8C3FA
:1000900001F0CDDFC9C3E1FFCAC3E2FF76C7E6FFC7
:1000A000C7C300F0C8C301F0C2DFC9C3E1FFCAC3C0
:1000B000E2FF75C7E6FFC7C300F0C8C301F0B7DFB2
:1000C000C9C3E1FFCAC3E2FF74C7E6FFC7C300F0BC
:1000D000C8C301F0ACDFC9C3E1FFCAC3E2FF78C700
:1000E000E6FFC7C300F0C8C301F0A1DF07017A6BC8
:1000F0007B6BC9C3E1FFCAC3E2FFFF0EE66EC7C355
:1001000000F0C8C301F093DF00C079F707017A4B14
:100110007B2B800E0014016E0150000A07E0000ED8
:100120007B5D02E1640E7A5D01E2E3D779C700F0FE
:020130001200BB
:0401320082901200A5
:10013600C9C3E1FFCAC3E2FF4C0EE66EC7C300F0B7
:10014600C8C301F071DFC9C3E1FFCAC3E2FFE66AB3
:10015600C7C300F0C8C301F067DFC9C3E1FFCAC364
:10016600E2FFE66AC7C300F0C8C301F05DDFC9C39A
:10017600E1FFCAC3E2FFE66AC7C300F0C8C301F0E5
:1001860053DFC9C3E1FFCAC3E2FFE66AC7C300F093
:10019600C8C301F049DFC9C3E1FFCAC3E2FFFF0ECE
:1001A600E66EC7C300F0C8C301F03EDF0701746BFB
:1001B600756BC9C3E1FFCAC3E2FFFF0EE66EC7C394
:1001C60000F0C8C301F030DF00C073F70701744BBD
:1001D600752B800E0014016E0150000A07E0000E18
:1001E600755D02E1640E745D01E2E3D773AF04D07E
:1001F60027DF73C700F012D0C9C3E1FFCAC3E2FF0D
:10020600FF0EE66EC7C300F0C8C301F00DDF00C0E5
:0E02160073F70050000AF0E013DF006A1200D8
:1002240088DF0050000A03E0FF0E006E01D0006A70
:020234001200B6
:100236007DDF000E000A03E1040E01010B1909E13E
:1002460065C76DF766C76EF767C76FF768C770F75C
:1002560014D0090E006E65C76DF766C76EF767C7DF
:100266006FF768C770F7005008E007016D376D91AA
:100276006E376F377037FF0FF7D70701110E736FA1
:100286006DC774F76EC775F76FC776F770C777F7E0
:10029600FF0E786FE2DE005204E0D2DE010E006E41
:1002A6004BD0C9C3E1FFCAC3E2FFFF0EE66EC7C368
:1002B60000F0C8C301F0B8DE0050FE0A01E0F1D735
:1002C60007016B6B6C6B020E6C5D02E1000E6B5DE1
:1002D6001BE26B516925716F6C516A21726FC9C33C
:1002E600E1FFCAC3E2FFFF0EE66EC7C300F0C8C354
:1002F60001F09ADE71C7E1FF72C7E2FF00C0E6FFB8
:1003060007016B4B6C2BDFD7C9C3E1FFCAC3E2FF02
:10031600FF0EE66EC7C300F0C8C301F085DEC9C391
:10032600E1FFCAC3E2FFFF0EE66EC7C300F0C8C313
:0A03360001F07ADE85DE006A120095
:10034000C9C3E1FFCAC3E2FFFF0EE66EC7C300F0F8
:10035000C8C301F06CDE0050FE0A01E0F1D71200C4
:100360000301C551000A04E0C551020A01E002D0B0
:10037000006A0DD057DF000E001806E0FF0E0301E3
:10038000C66FFF0E006E03D00301C56B006A12003A
:100390005FC765F760C766F761C767F762C768F749
:1003A00063C769F764C76AF746DF0050000A03E0D5
:0A03B000FF0E006E01D0006A12007B
:1003BA00070157517A0806E3610E575D03E3010E00
:0803CA00006E01D0006A120070
:1003D200070157515A0806E3410E575D03E3010E28
:0803E200006E01D0006A120058
:1003EA0007015751390806E3300E575D03E3010E42
:0803FA00006E01D0006A120040
:10040200026A110E025C17E21B0E0224F66E790ECE
:10041200F76E000EF722000EF86E000EF8220900A9
:10042200F5CF01F001500701571903E1010E006EEB
:0A04320003D0022AE6D7006A120088
:10043C0081DF0701596B5A6B020E5A5D02E1000E07
:10044C00595D1BE2595157255B6F5A5158215C6F0E
:10045C00C9C3E1FFCAC3E2FFFF0EE66EC7C300F0DB
:10046C00C8C301F0DEDD5BC7E1FF5CC7E2FF00C083
:10047C00E6FF0701594B5A2BDFD7C9C3E1FFCAC3AB
:10048C00E2FFFF0EE66EC7C300F0C8C301F0C9DD82
:10049C00C9C3E1FFCAC3E2FFFF0EE66EC7C300F09B
:0804AC00C8C301F0BEDD12001F
:1004B4003EDE000E000A03E1040E01010B1909E1FE
:1004C40057C75BF758C75CF759C75DF75AC75EF75C
:1004D40014D0090E006E57C75BF758C75CF759C7AD
:1004E4005DF75AC75EF7005008E007015B375B9180
:1004F4005C375D375E37FF0FF7D70701120E736F56
:100504005BC774F75CC775F75DC776F75EC777F7A7
:10051400FF0E786FA3DD005204E093DD010E006E40
:0605240001D0006A120084
:10052A000301C551030A1FE116DF0050000A05E066
:10053A00FF0EC66FFF0E006E5CD0010181510701EC
:10054A005A190EE1010180510701591909E1010106
:10055A007F510701581904E101017E51070157191A
:10056A0002E1006A46D00301C551010A05E1FF0E06
:10057A00C66FFF0E006E3DD007015A510101811965
:10058A000EE1070159510101801909E1070158518A
:10059A0001017F1904E10701575101017E1928E081
:1005AA0057C75FF758C760F759C761F75AC762F765
:1005BA00820E0701636F010E646FE5DE000E0018FC
:1005CA000FE0FF0E01017E6FFF0E7F6FFF0E806F3F
:1005DA00FF0E816FFF0E0301C66FFF0E006E09D07A
:1005EA0057C77EF158C77FF159C780F15AC781F1C1
:0405FA00006A120081
:1005FE004BC757F74CC758F74DC759F74EC75AF761
:10060E0052DF0050000A03E0FF0E006E01D0006AB8
:02061E001200C8
:0E0620004BC757F74CC758F709DF006A1200A6
:10062E004BC757F7DBDE005211E14BC757F7CADE57
:10063E0000520CE14BC757F7B9DE005207E14BC72A
:10064E0057F7D8DE005202E1006A02D0010E006EAA
:02065E00120088
:100660000301B25107014E5D0EE10301B1510701D3
:100670004D5D09E10301B05107014C5D04E1030147
:10068000AF5107014B5D15E30301855107014E5D35
:100690000EE10301845107014D5D09E1030183511E
:1006A00007014C5D04E10301825107014B5D01E24A
:1006B0000CD0F40E0301C66FFF0E006EFF0E016E2C
:1006C000FF0E026E0F0E036E64D086C300F04BC7A0
:1006D00057F74CC758F74DC759F74EC75AF7005050
:1006E00008E007015A335933583357335A9FFF0FE5
:1006F000F7D70301AB51070157270301AC5107019D
:1007000058230301AD51070159230301AE510701DD
:100710005A230BDF0050000A09E0FF0E006EFF0EA7
:10072000016EFF0E026E0F0E036E33D078C100F023
:1007300079C101F07AC102F07BC103F0010E005EC5
:10074000000E015A025A035A005007014B15046E5D
:1007500001504C15056E02504D15066E03504E1596
:10076000076E04C000F005C001F0003600900136AD
:10077000003600900136820E0024E96E010E012041
:10078000EA6EEECF00F0EECF01F0EECF02F0EECF4A
:0407900003F0120060
:1007940007014B515A0804E3410E4B5DD8B04B8B13
:0607A4004BC700F012003B
:1007AA004DC704F04EC705F04BC702F04CC703F023
:1007BA004FC700F050C701F0010E07014F5F000E4E
:1007CA00505B005001100FE004C0E9FF05C0EAFFCA
:1007DA0002C0E1FF03C0E2FFEECFE6FF024A032AAE
:1007EA00044A052AE5D74BC700F04CC701F01200AE
:1007FA004BC705F04CC706F04DC707F04EC708F0C7
:10080A000301AF51055EB051065AB151075AB251B0
:10081A00085A62C504F005C000F006C001F007C01E
:10082A0002F008C003F0045007E0003600900136D9
:10083A0002360336FF0FF8D7B5510026B65101220A
:0A084A00B7510222B8510322120038
:100854006EDC000E000A03E1040E01010B1909E12C
:100864004BC753F74CC754F74DC755F74EC756F708
:1008740014D0090E006E4BC753F74CC754F74DC73D
:1008840055F74EC756F7005008E007015337539108
:10089400543755375637FF0FF7D70701180E736FC4
:1008A40053C774F754C775F755C776F756C777F724
:1008B400FF0E786F30EC00F0005205E023EC00F0FE
:1008C400010E006E95D0C9C3E1FFCAC3E2FFFF0E5B
:1008D400E66EC7C300F0C8C301F017EC00F0C9C34B
:1008E400E1FFCAC3E2FFFF0EE66EC7C300F0C8C350
:1008F40001F017EC00F0C9C3E1FFCAC3E2FFFE0E2A
:10090400E66EC7C300F0C8C301F017EC00F007019E
:10091400516B526B5251010802E15151FF0816E329
:1009240051514F25E96E52515021EA6EC9C3E1FF7E
:10093400CAC3E2FFEECFE6FFC7C300F0C8C301F0AD
:1009440017EC00F00701514B522BE4D7C9C3E1FF68
:10095400CAC3E2FFFF0EE66EC7C300F0C8C301F0CE
:1009640017EC00F0C9C3E1FFCAC3E2FFFF0EE66E55
:10097400C7C300F0C8C301F017EC00F0C9C3E1FF1E
:10098400CAC3E2FFFF0EE66EC7C300F0C8C301F09E
:1009940017EC00F000C051F7000E0701526F1F0E54
:1009A4005115016E52C702F0000E021601C051F734
:1009B40002C052F7000E021802E1050E011805E00C
:1009C40023EC00F0020E006E13D0C9C3E1FFCAC3CA
:1009D400E2FFFF0EE66EC7C300F0C8C301F017ECD8
:1009E40000F00050FF0A01E0F0D723EC00F0006AA9
:0209F4001200EF
:1009F6007EC146F77FC147F780C148F781C149F7F5
:100A060034C73EF735C73FF736C740F737C741F714
:100A16000301B2510701375D0EE10301B151070130
:100A2600365D09E10301B0510701355D04E10301BB
:100A3600AF510701345D15E3030185510701415D9F
:100A46000EE1030184510701405D09E10301835171
:100A560007013F5D04E10301825107013E5D01E2AA
:100A660006D0F40E0301C66FFF0E006ECED007014E
:100A76004A6BEDC400F038C701F039C702F03AC737
:100A860003F03BC704F0005007E0043203320232A1
:100A96000132049EFF0FF8D70450000809E1035005
:100AA600000806E10250000803E1070101504A5D13
:100AB60055E23EC74BF73FC74CF740C74DF741C716
:100AC6004EF7CBDD00C03EF701C03FF702C040F74E
:100AD60003C041F703500F0A08E10250FF0A05E17F
:100AE6000150FF0A02E10050FF0A06E1F10E030180
:100AF600C66FFF0E006E89D00301B2510701415D3A
:100B06000EE10301B1510701405D09E10301B05156
:100B160007013F5D04E10301AF5107013E5D15E3A7
:100B2600030185510701415D0EE10301845107016F
:100B3600405D09E10301835107013F5D04E10301C3
:100B4600825107013E5D01E206D0F40E0301C66F35
:100B5600FF0E006E5AD007014A2B8BD70701EEC451
:100B660000F0EFC401F0F0C402F0F1C403F0010E8E
:100B7600005E000E015A025A035A00503815426FA1
:100B860001503915436F02503A15446F03503B1517
:100B9600456F3EC74BF73FC74CF740C74DF741C7B8
:100BA6004EF728DE94C308F042C704F043C705F0A9
:100BB60044C706F045C707F0085007E0073206327B
:100BC60005320432079EFF0FF8D73CC7E1FF3DC749
:100BD600E2FF04500024E66E05500120E66E065042
:100BE6000220E66E07500320E66E46C757F747C752
:100BF60058F748C759F749C75AF794DC0050000A16
:0C0C060003E0FF0E006E01D0006A120037
:100C12000B6A0A6A096A00500402F4CF09F0F3CFA2
:100C220008F001500502F4CF0BF0F3CF0AF00050A8
:100C32000502F3500926F4500A22E86A0B220150F9
:100C42000402F3500926F4500A22E86A0B2208C073
:100C520000F009C001F00AC002F00BC003F012005C
:100C6200010E07013425E96E000E3521EA6EEECF42
:100C720003F0000E046E000E046E03C001F0006A61
:100C820000C003F001C004F034C7D9FF35C7DAFF52
:100C9200DE500026000E012200C003F001C004F065
:0A0CA20000C003F001C004F01200CE
:0E0CAC0034C7E9FF35C7EAFFEECF00F01200B3
:100CBA00026A080E025C17E2450E0224F66E790EED
:100CCA00F76E000EF722000EF86E000EF8220900E9
:100CDA00F5CF01F001500701341903E1010E006E4E
:0A0CEA0003D0022AE6D7006A1200C8
:100CF400030E07013425E96E000E3521EA6EEECFAE
:100D040009F0000E0A6E0B6E0C6E000E0A6E0B6E6E
:100D14000C6E0BC003F00AC002F009C001F0006AB7
:100D240000C009F001C00AF002C00BF003C00CF0CF
:100D3400020E3425D96E000E3521DA6EDE50002401
:100D4400056E000E0120066E000E0220076E000ED6
:100D54000320086E05C009F006C00AF007C00BF0B6
:100D640008C00CF007C003F006C002F005C001F093
:100D7400006A00C009F001C00AF002C00BF003C011
:100D84000CF0010E3425D96E000E3521DA6EDE50DA
:100D94000024056E000E0120066E000E0220076E70
:100DA400000E0320086E05C009F006C00AF007C053
:100DB4000BF008C00CF007C003F006C002F005C039
:100DC40001F0006A00C009F001C00AF002C00BF093
:100DD40003C00CF034C7D9FF35C7DAFFDE50002654
:100DE400000E01220222032200C009F001C00AF011
:100DF40002C00BF003C00CF000C009F001C00AF0FF
:0A0E040002C00BF003C00CF0120056
:100E0E000301C551030A0AE1B0EC01F00050000ADB
:100E1E0005E0FF0EC66FFF0E006E50D0C551010AE1
:100E2E0005E1FF0EC66FFF0E006E48D00101815125
:100E3E00070137190EE1010180510701361909E149
:100E4E0001017F510701351904E101017E510701AE
:100E5E00341905E1020E0301C56F006A2FD034C7A5
:100E6E004BF735C74CF736C74DF737C74EF7FFEC84
:100E7E0002F00050000A06E0FF0E0301C66FFF0EDF
:100E8E00006E1CD0820E07014B6F010E4C6F10ECE2
:100E9E0003F00050000A06E0FF0E0301C66FFF0EBE
:100EAE00006E0CD00301010EC56F34C77EF135C73D
:0E0EBE007FF136C780F137C781F1006A12005C
:100ECC0034C74BF735C74CF736C74DF737C74EF716
:100EDC0038C74FF739C750F7B7DC0050000A03E0AA
:0A0EEC00FF0E006E01D0006A120034
:100EF6003B0E07014B6F070E4C6F34C74DF735C7D6
:100F06004EF70B0E4F6F000E506F4CDC386B0B0E0E
:100F1600385D3FE23A6B3B0EE96E070EEA6E3851DA
:100F2600E926D8B0EA2AEECF4BF717EC03F00050CB
:100F3600010A03E1010E07013A6F07013B0EE96E54
:100F4600070EEA6E3851E926D8B0EA2AEE50200A92
:100F560002E1010E3A6F3B0EE96E070EEA6E38515A
:100F6600E926D8B0EA2AEE502E0A02E1010E3A6FBF
:100F76003A51000A0BE136C7E1FF37C7E2FFE66ADE
:100F8600C40E0301C66FFF0E006EB5D00701382BE5
:100F9600BED7396B386B080E385D43E23B0EE96EFF
:100FA600070EEA6E3851E926D8B0EA2AEE50200A32
:100FB60034E00C0E3425E96E000E3521EA6EEECFD4
:100FC60001F001A619D039513625466F000E37219A
:100FD600476F3B0EE96E070EEA6E3851E926D8B028
:100FE600EA2AEECF4BF7CAEC03F046C7E1FF47C744
:100FF600E2FF00C0E6FF10D039513625E16E000E43
:101006003721E26E3B0EE96E070EEA6E3851E9268D
:10101600D8B0EA2AEECFE6FF01D003D0392B382B21
:10102600BAD74351200A09E139513625E16E000E3F
:101036003721E26EE66A006A5ED039513625E16EE6
:10104600000E3721E26E2E0EE66E392B080E386F33
:101056000B0E385D47E23B0EE96E070EEA6E38511D
:10106600E926D8B0EA2AEECF4BF717EC03F000508A
:10107600000A01E137D00C0E07013425E96E000E97
:101086003521EA6EEECF01F001A819D03951362587
:10109600466F000E3721476F3B0EE96E070EEA6E6C
:1010A6003851E926D8B0EA2AEECF4BF7CAEC03F05E
:1010B60046C7E1FF47C7E2FF00C0E6FF10D039513F
:1010C6003625E16E000E3721E26E3B0EE96E070E05
:1010D600EA6E3851E926D8B0EA2AEECFE6FF392B78
:1010E600382BB6D7070139513625E16E000E372168
:0810F600E26EE66A006A1200D6
:1010FE000701576B586B596B5A6B95EC02F0005009
:10110E00000A03E0FF0E006E23D1820E07012B6F43
:10111E00010E2C6F820E2D6F010E2E6FFE0E2B25E3
:10112E00346F010E2C21356F95DD0150AA0A02E1B4
:10113E00550E001806E0FC0E0301C66FFF0E006E82
:10114E0007D12DC7E9FF2EC7EAFFEECF01F0015000
:10115E00E90A15E02DC7E9FF2EC7EAFFEECF01F031
:10116E000150EB0A0BE1020E07012D25E96E000E70
:10117E002E21EA6EEE50900A01E101D006D0FB0E50
:10118E000301C66FFF0E006EE3D007012A6B010E3E
:10119E002A5DD8B0DCD00A0E006E000E016E2AC792
:1011AE0004F0000E056E2EDD950E0026030E0122B4
:1011BE0000C02FF701C030F7BE0E2B25346F010E85
:1011CE002C21356F040E026E2AC700F0000E016E40
:1011DE00025005E0003600900136FF0FFAD700509E
:1011EE003427015035235BDD2FC7E1FF30C7E2FF07
:1011FE0000C0E6FF0A0E006E000E016E2AC704F054
:10120E00000E056EFFDC950E0026030E0122010E68
:10121E0000242F6F000E0120306FBE0E2B25346F71
:10122E00010E2C21356F040E026E2AC700F0000E3F
:10123E00016E025005E0003600900136FF0FFAD71E
:10124E000050342701503523040E3427000E352369
:10125E0026DD2FC7E1FF30C7E2FF00C0E6FF0A0E12
:10126E00006E000E016E2AC704F0000E056ECADC79
:10127E00950E0026030E0122020E00242F6F000E83
:10128E000120306FBE0E2B25346F010E2C21356FD1
:10129E00040E026E2AC700F0000E016E025005E029
:1012AE00003600900136FF0FFAD700503427015058
:1012BE003523080E3427000E352315DD2FC7E1FF29
:1012CE0030C7E2FF00C0E6FF01C0E6FF02C0E6FF46
:1012DE0003C0E6FF0A0E006E000E016E2AC704F070
:1012EE00000E056E8FDC950E0026030E0122060EF3
:1012FE0000242F6F000E0120306FBE0E2B25346F91
:10130E00010E2C21356F040E026E2AC700F0000E5E
:10131E00016E025005E0003600900136FF0FFAD73D
:10132E0000503427015035230C0E3427000E352380
:10133E00DADC2FC7E1FF30C7E2FF00C0E6FF01C0D5
:10134E00E6FF02C0E6FF03C0E6FF2A2B20D7006AA5
:02135E0012007B
:10136000056A046A0B0E055C22E2010E0414016E8C
:10137000070E006E01C003F0005004E00336039036
:10138000FF0FFBD7FE0E0414026E02C000F0003205
:10139000009E00500310046E055007012A25D96EE7
:1013A000000E2B21DA6EDE500426052ADBD704C09E
:0413B00000F0120037
:0E13B400ACB202D00000FCD72AC7ADFF120079
:1013C2000E0E07012A25346F000E2B21356F48DCE3
:1013D2000B0E046E00C002F001C003F0045005E0E1
:1013E20003320232039EFF0FFAD71F0E0214006E61
:1013F20000C067F50E0E2A25346F000E2B21356FC3
:101402002FDC050E046E00C002F001C003F0045090
:1014120005E003320232039EFF0FFAD73F0E021499
:10142200006E00C068F50E0E2A25346F000E2B21C7
:10143200356F16DC00C002F0023602903F0E021435
:10144200006E00C069F5100E2A25346F000E2B21A4
:10145200356F06DC090E046E00C002F001C003F015
:10146200045005E003320232039EFF0FFAD77F0ECB
:101472000214006E03C001F0000E011600C063F5F5
:1014820001C064F5BC0E0026070E012200C063F500
:1014920001C064F5100E2A25346F000E2B21356F22
:1014A20031EC06F0050E046E00C002F001C003F03C
:1014B200045005E003320232039EFF0FFAD70F0EEB
:1014C2000214006E00C065F5100E2A25346F000E5E
:1014D2002B21356F31EC06F01F0E0014006E00C098
:0614E20066F5006A12002D
:1014E80007012B6B2C6B270E2C5D02E1100E2B5D78
:1014F800D8B0B0D0000E000A02E1000E2A1919E196
:1015080099EC00F0010E736F746B756B766B776BEB
:10151800FF0E786F30EC00F000C02DF723EC00F0E0
:1015280007012D51000A04E101010B6B006A94D0F8
:101538008DD099EC00F0370E0701736F746B756BE3
:10154800766B776BFF0E786F30EC00F000C02DF7EC
:1015580023EC00F007012D51010AD8A476D099ECAC
:1015680000F0290E736F000E746F000E756F000E79
:10157800766F400E776FFF0E786F30EC00F000C08A
:101588002DF723EC00F007012D51000A5DE1000E54
:10159800000A02E1020E2A1952E199EC00F03A0E13
:1015A800736F746B756B766B776BFF0E786F30ECBF
:1015B80000F000C02DF7C9C3E1FFCAC3E2FFFF0E68
:1015C800E66EC7C300F0C8C301F017EC00F000C016
:1015D8002EF7C9C3E1FFCAC3E2FFFF0EE66EC7C319
:1015E80000F0C8C301F017EC00F0C9C3E1FFCAC39B
:1015F800E2FFFF0EE66EC7C300F0C8C301F017ECA8
:1016080000F0C9C3E1FFCAC3E2FFFF0EE66EC7C31D
:1016180000F0C8C301F017EC00F023EC00F007015C
:101628002D51000A0BE12EAD04D0040E01010B6F01
:1016380003D00101030E0B6F006A0ED005D0010123
:10164800010E0B6F006A08D001D004D007012B4BA4
:0A1658002C2B49D7010E006E120082
:101662000134083609360450085E0550D8A0053CFE
:10167200095E003601360F0E0C6E0134083609364B
:10168200045000A006D0085E0550D8A0053C095EB3
:1016920005D008260550D8B0053C0926003601368B
:1016A2000C2EEBD700B006D0045008260550D8B057
:0816B200053C092600001200AE
:1016BA002AC734F72BC735F72CC736F72DC737F7A4
:1016CA002EC738F72FC739F730C73AF731C73BF774
:1016DA0032C73CF733C73DF7FBEC04F00050000A71
:1016EA0003E0FF0E006E15D032C7E9FF33C7EAFFE9
:1016FA00EECF57F7EECF58F7EECF59F7EECF5AF7AE
:10170A0095EC02F00050000A03E0FF0E006E01D0D3
:04171A00006A12004F
:10171E002AC734F72BC735F72CC736F72DC737F73F
:10172E007BEC07F0FF0E07012C252E6F000E2D21EE
:10173E002F6F0B0E2A25346F000E2B21356F56ECB2
:10174E0006F02EC7E1FF2FC7E2FF00C0E6FF000E36
:10175E002C252E6F010E2D212F6F1C0E2A25346F76
:10176E00000E2B21356F7AEC06F02EC7E1FF2FC746
:10177E00E2FF00C0E6FF01C0E6FF02C0E6FF03C0C5
:10178E00E6FF040E2C25326F010E2D21336F140E41
:10179E002A25346F000E2B21356F31EC06F000C078
:1017AE0003F001C004F0000E056E066E04C031F7A2
:1017BE0003C030F72E6B2F6B1A0E2A25346F000ED6
:1017CE002B21356F31EC06F0000E026E036E2E519A
:1017DE0000262F510122305102223151032232C7ED
:1017EE00E1FF33C7E2FF00C0E6FF01C0E6FF02C023
:0A17FE00E6FF03C0E6FF006A1200D8
:10180800160E07012A25346F000E2B21356F31EC97
:1018180006F00B0E046E00C002F001C003F0045085
:1018280005E003320232039EFF0FFAD71F0E02149F
:10183800006E00C05FF5160E2A25346F000E2B21AE
:10184800356F31EC06F0050E046E00C002F001C0E1
:1018580003F0045005E003320232039EFF0FFAD76B
:101868003F0E0214006E00C060F5160E2A25346F74
:10187800000E2B21356F31EC06F000C002F0023665
:1018880002903F0E0214006E00C061F5180E2A2562
:10189800346F000E2B21356F31EC06F0090E046E03
:1018A80000C002F001C003F0045005E00332023228
:1018B800039EFF0FFAD77F0E0214006E03C001F0DB
:1018C800000E011600C05BF501C05CF5BC0E0026D9
:1018D800070E012200C05BF501C05CF5180E2A2531
:1018E800346F000E2B21356F31EC06F0050E046EB7
:1018F80000C002F001C003F0045005E003320232D8
:10190800039EFF0FFAD70F0E0214006E00C05DF59C
:10191800180E2A25346F000E2B21356F31EC06F096
:0E1928001F0E0014006E00C05EF5006A120073
:101936002EC701F02FC702F0010E07012E5F000E21
:101946002F5B000E021802E1000E01181FE02AC7E5
:10195600E9FF2BC7EAFF2CC7D9FF2DC7DAFFEE50E8
:10196600DE180FE02AC7E9FF2BC7EAFF2CC7D9FF0D
:101976002DC7DAFFDE50EE5C006E016A000E015ADA
:1019860007D02A4B2B2B2C4B2D2BD2D7006A016A62
:0219960012003D
:101998000450085E0550D8A0053C095E0650D8A042
:1019A800063C0A5E0750D8A0073C0B5E0336070EBC
:1019B8000C6E0334083609360A360B36045003A079
:1019C8000ED0085E0550D8A0053C095E0650D8A088
:1019D800063C0A5E0750D8A0073C0B5E0DD00826CF
:1019E8000550D8B0053C09260650D8B0063C0A2652
:1019F8000750D8B0073C0B2603360C2EDAD7023432
:101A0800083609360A360B36045003A00ED0085E95
:101A18000550D8A0053C095E0650D8A0063C0A5ED1
:101A28000750D8A0073C0B5E0DD008260550D8B04B
:101A3800053C09260650D8B0063C0A260750D8B0FF
:101A4800073C0B260236070E0C6E023408360936A0
:101A58000A360B36045002A00ED0085E0550D8A0F6
:101A6800053C095E0650D8A0063C0A5E0750D8A07F
:101A7800073C0B5E0DD008260550D8B0053C09265A
:101A88000650D8B0063C0A260750D8B0073C0B26AB
:101A980002360C2EDAD70134083609360A360B36E8
:101AA800045002A00ED0085E0550D8A0053C095E7F
:101AB8000650D8A0063C0A5E0750D8A0073C0B5E2B
:101AC8000DD008260550D8B0053C09260650D8B0D8
:101AD800063C0A260750D8B0073C0B260136070EED
:101AE8000C6E0134083609360A360B36045001A04C
:101AF8000ED0085E0550D8A0053C095E0650D8A057
:101B0800063C0A5E0750D8A0073C0B5E0DD008269D
:101B18000550D8B0053C09260650D8B0063C0A2620
:101B28000750D8B0073C0B2601360C2EDAD7003404
:101B3800083609360A360B36045001A00ED0085E66
:101B48000550D8A0053C095E0650D8A0063C0A5EA0
:101B58000750D8A0073C0B5E0DD008260550D8B01A
:101B6800053C09260650D8B0063C0A260750D8B0CE
:101B7800073C0B260036070E0C6E00340836093673
:101B88000A360B36045000A00ED0085E0550D8A0C7
:101B9800053C095E0650D8A0063C0A5E0750D8A04E
:101BA800073C0B5E0DD008260550D8B0053C092629
:101BB8000650D8B0063C0A260750D8B0073C0B267A
:101BC80000360C2EDAD700B00ED004500826055087
:101BD800D8B0053C09260650D8B0063C0A2607505E
:081BE800D8B0073C0B261200E7
:101BF0000301C551030A0AE1B0EC01F00050000AEC
:101C000005E0FF0EC66FFF0E006E32D0C551010A0F
:101C100005E1FE0EC66FFF0E006E2AD02AC734F70C
:101C20002BC735F72CC736F72DC737F7820E0701BC
:101C3000386F010E396F66EC07F0000E00180FE0E8
:101C4000FF0E01017E6FFF0E7F6FFF0E806FFF0E94
:101C5000816FFE0E0301C66FFF0E006E09D02AC70A
:101C60007EF12BC77FF12CC780F12DC781F1006A6F
:021C7000120060
:101C72002AC7C9FFC7B002D00000FCD7C9CF00F005
:021C820012004E
:101C84002AC74BF717EC03F0005208E12AC734F7D0
:101C94005DEC06F0005202E1006A02D0010E006E13
:021CA40012002C
:101CA60007012A517A0804E3610E2A5DD8B02A9BFF
:061CB6002AC700F0120035
:101CBC000B1E0A1E091E081E082AD8B4092AD8B4FD
:081CCC000A2AD8B40B2A120009
:101CD4002AC702F02BC703F002C000F003C001F0D2
:101CE400024A032A00C0E9FF01C0EAFFEE5201E004
:101CF400F3D707012A51025C006E2B510358016E81
:0A1D0400010E005E000E015A1200ED
:101D0E00010E07012A25E96E000E2B21EA6E2CC763
:101D1E00E1FF2DC7E2FFEECFE6FF010E2C25E16EAF
:101D2E00000E2D21E26E030E2A25E96E000E2B21E8
:101D3E00EA6EEECFE6FF020E2C25E16E000E2D218F
:101D4E00E26E050E2A25E96E000E2B21EA6EEECF0D
:101D5E00E6FF030E2C25E16E000E2D21E26E070E1E
:101D6E002A25E96E000E2B21EA6EEECFE6FF040E59
:101D7E002C25E16E000E2D21E26E090E2A25E96E4C
:101D8E00000E2B21EA6EEECFE6FF050E2C25E16E3E
:101D9E00000E2D21E26E0E0E2A25E96E000E2B216D
:101DAE00EA6EEECFE6FF060E2C25E16E000E2D211B
:101DBE00E26E100E2A25E96E000E2B21EA6EEECF92
:101DCE00E6FF070E2C25E16E000E2D21E26E120E9F
:101DDE002A25E96E000E2B21EA6EEECFE6FF080EE5
:101DEE002C25E16E000E2D21E26E140E2A25E96ED1
:101DFE00000E2B21EA6EEECFE6FF090E2C25E16ECA
:101E0E00000E2D21E26E160E2A25E96E000E2B21F4
:101E1E00EA6EEECFE6FF0A0E2C25E16E000E2D21A6
:101E2E00E26E180E2A25E96E000E2B21EA6EEECF19
:101E3E00E6FF0B0E2C25E16E000E2D21E26E1C0E20
:101E4E002A25E96E000E2B21EA6EEECFE6FF0C0E70
:101E5E002C25E16E000E2D21E26E1E0E2A25E96E56
:0E1E6E00000E2B21EA6EEECFE6FF006A120096
:101E7C00010E066E000E076E086E096E056A200EC6
:101E8C00055C23E2065007012A11016E07502B1145
:101E9C00026E08502C11036E09502D11046E045063
:101EAC00091808E10350081805E10250071802E16F
:101EBC000150061803E105C000F009D00636069063
:101ECC00073608360936052ADAD7FF0E006E1200DF
:101EDC000301C551020A17E1010E01017E2507011C
:101EEC00346F000E01017F210701356F000E0101D7
:101EFC0080210701366F000E010181210701376F28
:101F0C0007EC07F02ED0C551000A05E1FF0EC66F95
:101F1C00FF0E006E26D0820E07014B6F010E4C6F28
:101F2C0010EC03F00050000A06E0FF0E0301C66F30
:101F3C00FF0E006E16D0010E01017E25006E000E04
:101F4C007F21016E000E8021026E000E8121036E36
:101F5C0000C07EF101C07FF102C080F103C081F1AD
:041F6C00006A1200F5
:101F700009C702F00AC703F00CC700F00DC701F053
:101F8000010E07010C5F000E0D5B0050011009E00F
:101F900002C0E1FF03C0E2FF0BC7E6FF024A032ACB
:0C1FA000EBD709C700F00AC701F01200DF
:101FAC000401EC51FF0A08E1EB51FF0A05E1EA518B
:101FBC00FF0A02E1E951FF0A06E1F60E0301C66FC2
:101FCC00FF0E006E2DD20301E4C30BF7E5C30CF733
:101FDC00E6C30DF7E7C30EF7B251E75D08E1B15167
:101FEC00E65D05E1B051E55D02E1AF51E45D14E35E
:101FFC00855107010E5D0EE10301845107010D5D52
:10200C0009E10301835107010C5D04E103018251D5
:10201C0007010B5D01E206D0F40E0301C66FFF0E43
:10202C00006EFED10701156BEDC400F0E9C401F0A0
:10203C00EAC402F0EBC403F0ECC404F0005007E077
:10204C000432033202320132049EFF0FF8D70450DF
:10205C00000809E10350000806E10250000803E102
:10206C0007010150155D56E20BC74BF70CC74CF737
:10207C000DC74DF70EC74EF730EC03F000C00BF751
:10208C0001C00CF702C00DF703C00EF703500F0A86
:10209C0008E10250FF0A05E10150FF0A02E100507D
:1020AC00FF0A06E1F10E0301C66FFF0E006EB8D1F8
:1020BC000301B25107010E5D0EE10301B15107019D
:1020CC000D5D09E10301B05107010C5D04E1030151
:1020DC00AF5107010B5D15E30301855107010E5D3F
:1020EC000EE10301845107010D5D09E103018351E8
:1020FC0007010C5D04E10301825107010B5D01E254
:10210C0006D0F40E0301C66FFF0E006E89D10701D5
:10211C00152B8AD7EEC400F0EFC401F0F0C402F026
:10212C00F1C403F0010E005E000E015A025A035A6C
:10213C0000500401E9150701116F01500401EA1563
:10214C000701126F02500401EB150701136F0350C6
:10215C000401EC150701146F0BC74BF70CC74CF7B8
:10216C000DC74DF70EC74EF7FDEC03F094C308F006
:10217C0011C704F012C705F013C706F014C707F017
:10218C00085007E00732063205320432079EFF0F73
:10219C00F8D7045000240701346F05500120356F27
:1021AC0006500220366F07500320376F8FC300F0A4
:1021BC0090C301F091C302F092C303F0010E005ED4
:1021CC00000E015A025A035A00501115046E0150A8
:1021DC001215056E02501315066E03501415076E7A
:1021EC00050E026E04C000F005C001F0025005E0BF
:1021FC00003600900136FF0FFAD70701820E00243B
:10220C000F6F010E0120106F07EC07F00050000A51
:10221C0003E0FF0E006E04D10FC7E9FF10C7EAFF01
:10222C00EECF01F00150E50A0AE00FC7E9FF10C735
:10223C00EAFFEECF01F0200E015C01E318D00FC7CE
:10224C00E9FF10C7EAFFEECF01F0140E015C0EE2BD
:10225C000B0E07010F25E96E000E1021EA6E3F0EE2
:10226C00EE14016E01500F0A01E101D048D0B0EC20
:10227C0001F00050000A03E0FF0E006ED1D0070100
:10228C0009510A1132E00FC72AF710C72BF709C7FB
:10229C002CF70AC72DF78FEC0BF00FC72AF710C7D6
:1022AC002BF7E1EC09F00FC72AF710C72BF704EC5A
:1022BC000CF0080E0925E16E010E0A21E26EE4C352
:1022CC00E6FFE5C3E6FFE6C3E6FFE7C3E6FF0C0E59
:1022DC000925E16E010E0A21E26EE9C4E6FFEAC4AB
:1022EC00E6FFEBC4E6FFECC4E6FF010E0401E927B0
:1022FC00000EEA23EB23EC23010E006E91D0010EAD
:10230C0007011127000E122313231423200E0F256F
:10231C00016E000E1021026E01C00FF702C010F703
:10232C00010E0401E927000EEA23EB23EC230250F3
:10233C0001017D1902E17C510118D8A470D0820EE4
:10234C0007010F6F010E106F14510401F1190EE10A
:10235C00070113510401F01909E10701125104019D
:10236C00EF1904E1070111510401EE1951E1B0EC30
:10237C0001F00050000A03E0FF0E006E51D007017F
:10238C00116B126B136B146B0BC74BF70CC74CF721
:10239C000DC74DF70EC74EF730EC03F000C00BF72E
:1023AC0001C00CF702C00DF703C00EF703500F0A63
:1023BC0008E10250FF0A05E10150FF0A02E100505A
:1023CC00FF0A0BE1FF0E0401E96FFF0EEA6FFF0E2F
:1023DC00EB6FFF0EEC6F006A23D00BC74BF70CC7EB
:1023EC004CF70DC74DF70EC74EF7FDEC03F000C0D0
:1023FC0034F701C035F702C036F703C037F707ECE6
:10240C0007F00050000A03E0FF0E006E09D007D061
:10241C005FDD0050000A03E0FF0E006E01D0FCD619
:02242C0012009C
:10242E000450000A12E10550000A0FE10650000A9E
:10243E000CE10750000A09E1FF0E006EFF0E016E5F
:10244E00FF0E026E7F0E036E99D00C6A07BE0C2A29
:10245E000D6A0B6A0A6A096A086A035002100110B3
:10246E000010D8B485D0035007180E6E0EBE0D1E88
:10247E0007AE0BD0041E051E061E071E042AD8B476
:10248E00052AD8B4062AD8B4072A03AE0BD0001EEC
:10249E00011E021E031E002AD8B4012AD8B4022A35
:1024AE00D8B4032A035007100E6E0EBE1DD0CCEC0E
:1024BE000CF00CBE36D00DAE5BD0001E011E021EFF
:1024CE00031E002AD8B4012AD8B4022AD8B4032A8B
:1024DE00081E091E0A1E0B1E082AD8B4092AD8B4D3
:1024EE000A2AD8B40B2A44D007AE15D003BE0DD09D
:1024FE0003500B6E02500A6E0150096E0050086EAA
:10250E00036A026A016A006AD6D7036A026A016A1E
:10251E00006A002A000C031E021E011E001E0C8EF5
:10252E00C6D7082AD8B4092AD8B40A2AD8B40B2A8E
:10253E000450085CD8A4BFD70550095CD8A4BBD7FB
:10254E0006500A5CD8A4B7D707500B5CD8A4B3D7F3
:10255E000B6A0A6A096A086A002AD8B4012AD8B432
:10256E00022AD8B4032A03AEA6D70E6A0E88FF0C31
:0E257E000E6A0CA002D05EEC0EF0000F1200F0
:10258C0086C304F00DC700F00EC701F00FC702F0B0
:10259C0010C703F0045007E003320232013200325C
:1025AC00039EFF0FF8D700C012F701C013F702C04B
:1025BC0014F703C015F70301AB510024086EAC519E
:1025CC000120096EAD5102200A6EAE5103200B6E34
:1025DC0008C012F709C013F70AC014F70BC015F79F
:1025EC0078C100F079C101F07AC102F07BC103F02F
:1025FC00010E005E000E015A025A035A00500701E8
:10260C000D15046E01500E15056E02500F15066E59
:10261C0003501015076E04C000F005C001F0003621
:10262C0000900136003600900136820E00241A6F9D
:10263C00010E01201B6F08C057F709C058F70AC0DC
:10264C0059F70BC05AF795EC02F00050000A03E062
:10265C00FF0E006E46D01AC7E1FF1BC7E2FF09C789
:10266C00E6FF0AC7E6FF0BC7E6FF0CC7E6FF12C77B
:10267C0016F713C717F714C718F715C719F707017B
:10268C00116B0301A4510701115D22E216C72AF751
:10269C0017C72BF718C72CF719C72DF7F8EC0DF047
:1026AC000050000A03E0FF0E006E1BD00301A55181
:1026BC00070116270301A651070117230301A75190
:1026CC00070118230301A85107011923112BD9D78E
:1026DC0012C77EF113C77FF114C780F115C781F1C2
:0426EC00006A12006E
:1026F000C1C309F7C2C30AF7C3C30BF7C4C30CF7BE
:102700000301B251C45D08E1B151C35D05E1B051AF
:10271000C25D02E1AF51C15D14E3855107010C5D5B
:102720000EE10301845107010B5D09E103018351AF
:1027300007010A5D04E1030182510701095D01E21D
:1027400008D0AFC309F7B0C30AF7B1C30BF7B2C3E0
:102750000CF709C70DF70AC70EF70BC70FF70CC721
:1027600010F786C304F009C700F00AC701F00BC7D1
:1027700002F00CC703F0045007E0033202320132CA
:102780000032039EFF0FF8D700500301AB2507016D
:10279000346F01500301AC210701356F0250030172
:1027A000AD210701366F03500301AE210701376FDA
:1027B00078C100F079C101F07AC102F07BC103F069
:1027C000010E005E000E015A025A035A005009150C
:1027D000046E01500A15056E02500B15066E03506B
:1027E0000C15076E04C000F005C001F00036009023
:1027F0000136003600900136820E0024116F010E62
:102800000120126F07EC07F00050000A09E0FF0EEC
:10281000006EFF0E016EFF0E026E0F0E036E6CD186
:102820000701136B11C7E9FF12C7EAFFEECF01F0F2
:10283000EECF02F0EECF03F0EECF04F00450000A2A
:1028400008E10350000A05E10250000A02E10150CC
:10285000000A04E10701010E136FC0D00701040E46
:102860001127000E1223010E0927000E0A230B2345
:102870000C230301855107010C5D0EE10301845116
:1028800007010B5D09E10301835107010A5D04E1C2
:10289000030182510701095D76E3AFC309F7B0C3B5
:1028A0000AF7B1C30BF7B2C30CF7B0EC01F000505C
:1028B000000A09E0FF0E006EFF0E016EFF0E026EB1
:1028C0000F0E036E19D186C304F009C700F00AC7C2
:1028D00001F00BC702F00CC703F0045007E003320D
:1028E000023201320032039EFF0FF8D7030100507D
:1028F000AB250701346F01500301AC210701356F8F
:1029000002500301AD210701366F03500301AE21D0
:102910000701376F78C100F079C101F07AC102F088
:102920007BC103F0010E005E000E015A025A035AE9
:1029300000500915046E01500A15056E02500B1562
:10294000066E03500C15076E04C000F005C001F0C0
:10295000003600900136003600900136820E0024C9
:10296000116F010E0120126F07EC07F00050000AF2
:1029700009E0FF0E006EFF0E016EFF0E026E0F0EDD
:10298000036EBAD01CD00701125101017D1903E179
:102990007C510701111913E10701820E116F010E1D
:1029A000126F6EEC0FF00050000A09E0FF0E006E8F
:1029B000FF0E016EFF0E026E0F0E036E9DD007011B
:1029C0000C51101908E10B510F1905E10A510E19AC
:1029D00002E109510D1901E101D024D7B0EC01F059
:1029E0000050000A09E0FF0E006EFF0E016EFF0EA0
:1029F000026E0F0E036E80D00701135309E1FF0E24
:102A0000006EFF0E016EFF0E026E0F0E036E74D08D
:102A100011C7E1FF12C7E2FFFF0EE66EFF0EE66E82
:102A2000FF0EE66E0F0EE66E86C304F009C700F0D7
:102A30000AC701F00BC702F00CC703F0045007E00F
:102A40000332023201320032039EFF0FF8D70050EA
:102A50000301AB2507012A6F01500301AC210701D7
:102A60002B6F02500301AD2107012C6F03500301AE
:102A7000AE2107012D6FF8EC0DF00050000A07E0C1
:102A8000FF0E006EFF0E016E026E036E35D0030165
:102A9000C051FF0A08E1BF51FF0A05E1BE51FF0A1C
:102AA00002E1BD51FF0A16E0BDC300F0BEC301F054
:102AB000BFC302F0C0C303F0010E005E000E015A56
:102AC000025A035A00C0BDF301C0BEF302C0BFF3F7
:102AD00003C0C0F309C7C1F30AC7C2F30BC7C3F3EE
:102AE0000CC7C4F3010E936F09C700F00AC701F0C9
:0A2AF0000BC702F00CC703F0120040
:102AFA0009C72AF70AC72BF76AEC0EF000C00EF7CF
:102B0A0001C00FF70BC72AF70CC72BF76AEC0EF0B8
:102B1A000F51011802E100500E1902E0006A2FD08D
:102B2A000D6B0BC72AF70CC72BF76AEC0EF0800E59
:102B3A00026E800E0118025C02E100500D5D1DE27A
:102B4A000D510925E96E000E0A21EA6EEECF2AF729
:102B5A0053EC0EF000C00EF70D510B25E96E000E76
:102B6A000C21EA6EEECF2AF753EC0EF00E51001844
:102B7A0002E0006A04D00D2BD4D7010E006E1200B9
:102B8A00160E07010925006E000E0A21016E010EBC
:102B9A000024E16E000E0120E26E8CC300F00036C4
:102BAA000090003600900036009000C0E6FF160E36
:102BBA000925006E000E0A21016E010E0024026E24
:102BCA00000E0120036E8DC300F00032009E003219
:102BDA00009E0032009E02C0E9FF03C0EAFFEE50E9
:102BEA00002602C0E1FF03C0E2FF00C0E6FF160EA6
:102BFA000925E16E000E0A21E26E050E016E8DC3F3
:102C0A0000F0015004E000360090FF0FFBD700C02F
:102C1A00E6FF160E0925026E000E0A21036E8EC308
:102C2A0000F00032009E02C0E9FF03C0EAFFEE5046
:102C3A00002602C0E1FF03C0E2FF00C0E6FF180E53
:102C4A000925006E000E0A21016E010E0024E16EB4
:102C5A00000E0120E26EBC0E0301885D026E02C006
:102C6A0000F00036009000C0E6FF180E07010925A3
:102C7A00006E000E0A21016E010E0024026E000E83
:102C8A000120036E8AC300F00032009E0032009ECB
:102C9A000032009E02C0E9FF03C0EAFFEE500026A0
:102CAA0002C0E1FF03C0E2FF00C0E6FF180E0925DB
:102CBA00E16E000E0A21E26E050E016E8AC300F073
:102CCA00015004E000360090FF0FFBD700C0E6FF7A
:102CDA00180E0925016E000E0A21026E01C0E9FFD5
:102CEA0002C0EAFF03018B51EE24006E01C0E1FF2E
:0C2CFA0002C0E2FF00C0E6FF006A12000A
:102D0600E4C30DF7E5C30EF7E6C30FF7E7C310F705
:102D16000401E96BEA6BEB6BEC6B0301B251070143
:102D2600105D0EE10301B15107010F5D09E10301D9
:102D3600B05107010E5D04E10301AF5107010D5DBE
:102D460015E3030185510701105D0EE1030184516E
:102D560007010F5D09E10301835107010E5D04E1DF
:102D66000301825107010D5D01E206D0F40E030155
:102D7600C66FFF0E006EE0D0820E0701156F010EC2
:102D8600166F0DC74BF70EC74CF70FC74DF710C799
:102D96004EF7FDEC03F000C034F701C035F702C072
:102DA60036F703C037F707EC07F00050000A03E0D8
:102DB600FF0E006EC1D00701116B126B136B146B03
:102DC6000401F1510701145D0EE10401F051070100
:102DD600135D09E10401EF510701125D04E10401ED
:102DE600EE510701115DD8B07ED0165101017D1953
:102DF60003E17C51070115190DE10701820E156FDC
:102E0600010E166F6EEC0FF00050000A03E0FF0E85
:102E1600006E92D015C72AF716C72BF709C72CF7ED
:102E26000AC72DF70B0E07012E6F000E2F6F9BECB6
:102E36000CF0000E011802E1000E001841E1B0ECA2
:102E460001F00050000A03E0FF0E006E75D0070186
:102E56000B510C1126E015C72AF716C72BF70BC71F
:102E66002CF70CC72DF78FEC0BF0080E0B25E16E37
:102E7600010E0C21E26EE4C3E6FFE5C3E6FFE6C3FE
:102E8600E6FFE7C3E6FF0C0E0B25E16E010E0C21F3
:102E9600E26EE9C4E6FFEAC4E6FFEBC4E6FFECC473
:102EA600E6FF15C72AF716C72BF7E1EC09F015C799
:102EB6002AF716C72BF704EC0CF0010E006E3CD077
:102EC6000701200E1527000E1623010E1127000EEE
:102ED600122313231423010E0401E927000EEA230B
:102EE600EB23EC236DD7B0EC01F00050000A03E0B1
:102EF600FF0E006E21D00DC74BF70EC74CF70FC75C
:102F06004DF710C74EF730EC03F000C00DF701C0C7
:102F16000EF702C00FF703C010F703500F0A08E1BF
:102F26000250FF0A05E10150FF0A02E10050FF0AC4
:0A2F360002E1006A01D0F1D612009A
:102F40001A0E07010925E16E000E0A21E26E0BC779
:102F5000E6FF1A0E0925006E000E0A21016E010E11
:102F60000024E16E000E0120E26E0CC7E6FF140E95
:102F70000925E16E000E0A21E26E0DC7E6FF140E70
:102F80000925006E000E0A21016E010E0024E16E7B
:0E2F9000000E0120E26E0EC7E6FF006A12007E
:102F9E00010E07010D6F0E6B0F6B106B116B126B29
:102FAE00136B09C7E9FF0AC7EAFFEE50000A06E1F4
:102FBE00C40E0301C66FFF0E006EEED009C72AF7CE
:102FCE000AC72BF76AEC0EF000C00CF70B6B09C7A3
:102FDE002AF70AC72BF76AEC0EF0800E026E800EEF
:102FEE000118025C02E100500B5D15E20B51092540
:102FFE00E96E000E0A21EA6EEECF2AF742EC0EF0D1
:10300E00005206E1C30E0301C66FFF0E006EC4D060
:10301E0007010B2BDCD70C05006E000E0CBFFF0E4C
:10302E00016E000E015A00500925E96E01500A2169
:10303E00EA6EEE502E0A02E10C07EDD7800E000A62
:10304E00006E800E0C19005C06E3E20E0301C66FE3
:10305E00FF0E006EA1D009C72AF70AC72BF76AEC3C
:10306E000EF0800E0CBF7F0E026E800E0118025CF9
:10307E0002E100500C5D09E20C510925E16E000ED3
:10308E000CBFFF0E0A21E26EE66A0B6B800E006E1D
:10309E00800E0CBF7F0E005C02E10C510B5D12E244
:1030AE000B510925E96E000E0A21EA6EEECF34F7B8
:1030BE005DEC06F0005203E0010E006E6DD00701CC
:1030CE000B2BE4D7800E0B0A006E800E0C19005CE1
:1030DE0003E2010E006E60D00B6B800E006E800E50
:1030EE000CBF7F0E005C02E10C510B5D3FE20B51F9
:1030FE000925E96E000E0A21EA6EEECF57F7DDECD8
:10310E0001F0005203E0010E0E6F29D00B5109257C
:10311E00E96E000E0A21EA6EEECF57F7E9EC01F0E8
:10312E00005203E0010E0F6F1AD00B510925E96E04
:10313E00000E0A21EA6EEE502E0A11E111530CE137
:10314E000E5304E00F5302E0010E106F010E116FCB
:10315E000D6B0E6B0F6B08D0010E006E1DD00D5354
:10316E0002E0122B01D0132B0B2BB7D70E5304E01A
:10317E000F5302E0010E106F1251080804E31351B1
:10318E00030801E303D0010E006E06D0105303E0D6
:0A319E00020E006E01D0006A12005C
:1031A800050E01010B6F949023EC00F00701096BE9
:1031B8000A6B000E0A5D02E10A0E095D10E2C9C33E
:1031C800E1FFCAC3E2FFFF0EE66EC7C300F0C8C343
:1031D80001F017EC00F00701094B0A2BEAD799EC2C
:1031E80000F0736B746B756B766B776B950E786FFD
:1031F80030EC00F000C00BF723EC00F007010B5196
:10320800010A03E0010E006E84D099EC00F0080E6C
:10321800736FAA0E746F010E756F000E766F776F5D
:10322800870E786F30EC00F000C00BF7C9C3E1FFE0
:10323800CAC3E2FFFF0EE66EC7C300F0C8C301F0C1
:1032480017EC00F0C9C3E1FFCAC3E2FFFF0EE66E48
:10325800C7C300F0C8C301F017EC00F0C9C3E1FF11
:10326800CAC3E2FFFF0EE66EC7C300F0C8C301F091
:1032780017EC00F0C9C3E1FFCAC3E2FFFF0EE66E18
:10328800C7C300F0C8C301F017EC00F023EC00F04E
:1032980007010B51010A0BE0010E2A6F74EC0AF0CA
:1032A800005204E007012A6B74EC0AF005D0020E04
:1032B80007012A6F74EC0AF0000E000A03E1050EFC
:1032C80001010B1903E1020E006E23D0000E000A63
:1032D80003E10101040E0B191BE099EC00F0100E3C
:1032E8000701736F000E746F020E756F000E766F14
:1032F800776FFF0E786F30EC00F000C00BF723EC0F
:1033080000F007010B51000A03E0030E006E01D024
:04331800006A120035
:10331C000E0E07010925006E000E0A21016E010E2A
:10332C000024E16E000E0120E26E8CC300F000362A
:10333C000090003600900036009000C0E6FF0E0EA4
:10334C000925006E000E0A21016E010E0024026E8A
:10335C00000E0120036E8DC300F00032009E00327F
:10336C00009E0032009E02C0E9FF03C0EAFFEE504F
:10337C00002602C0E1FF03C0E2FF00C0E6FF0E0E14
:10338C000925E16E000E0A21E26E050E016E8DC359
:10339C0000F0015004E000360090FF0FFBD700C096
:1033AC00E6FF0E0E0925026E000E0A21036E8EC377
:1033BC0000F00032009E02C0E9FF03C0EAFFEE50AD
:1033CC00002602C0E1FF03C0E2FF00C0E6FF100EC2
:1033DC000925006E000E0A21016E010E0024E16E1B
:1033EC00000E0120E26EBC0E0301885D026E02C06D
:1033FC0000F00036009000C0E6FF100E0701092512
:10340C00006E000E0A21016E010E0024026E000EE9
:10341C000120036E8AC300F00032009E0032009E31
:10342C000032009E02C0E9FF03C0EAFFEE50002606
:10343C0002C0E1FF03C0E2FF00C0E6FF100E092549
:10344C00E16E000E0A21E26E050E016E8AC300F0D9
:10345C00015004E000360090FF0FFBD700C0E6FFE0
:10346C00100E0925016E000E0A21026E01C0E9FF43
:10347C0002C0EAFF03018B51EE24006E01C0E1FF94
:0C348C0002C0E2FF00C0E6FF006A120070
:103498000450000A08E10550000A05E1FF0E006E1D
:1034A8007F0E016E58D00D6A096A086A0150001033
:1034B800D8B4000C015005180A6E0ABE0D1E0B6A1E
:1034C80005AE05D0041E051E042AD8B4052A01AE8F
:1034D80005D0001E011E002AD8B4012A015005108B
:1034E8000A6E0ABE10D031EC0BF00BB020D00DAE36
:1034F800000C001E011E002AD8B4012A081E091E4D
:10350800082AD8B4092A000C05AE0DD001BE07D090
:103518000150096E0050086E016A006AE8D7016A16
:10352800006A002A000C011E001E0B2ADDD7082A9B
:10353800D8B4092A0450085CD8A4D9D70550095C26
:10354800D8A4D5D7096A086A002AD8B4012A01AED6
:08355800CED70000FF0C1200A9
:10356000E9C421F7EAC422F7EBC423F7ECC424F73B
:10357000E4C32AF7E5C32BF7E6C32CF7E7C32DF71F
:10358000E9C42EF7EAC42FF7EBC430F7ECC431F7E7
:10359000250E0701326F070E336F5DEC0BF0005004
:1035A000000A03E0FF0E006E79D18FC300F090C3D4
:1035B00001F091C302F092C303F0010E005E000E11
:1035C000015A025A035A00500401E915046E0150D1
:1035D000EA15056E0250EB15066E0350EC15076EEA
:1035E00004C01DF705C01EF706C01FF707C020F76F
:1035F000050E026E04C000F005C001F0025005E0A7
:10360000003600900136FF0FFAD7820E0024070122
:103610002A6F010E01202B6F010E0C6FB0EC09F028
:1036200000C00DF7010E0401E95F000EEA5BEB5BE1
:10363000EC5B000E006E0701201908E100501F1915
:1036400005E100501E1902E11D51000A2BE1EEC4F4
:103650001DF7EFC41EF7F0C41FF7F1C420F7010EE9
:103660001D5F000E1E5B1F5B205BE4C32AF7E5C3F2
:103670002BF7E6C32CF7E7C32DF7E9C42EF7EAC40E
:103680002FF7EBC430F7ECC431F7250E326F070E7D
:10369000336F5DEC0BF00050000A03E0FF0E006E8C
:1036A000FDD007D0010E07011D5F000E1E5B1F5BE2
:1036B000205B07018FC300F090C301F091C302F0BB
:1036C00092C303F0010E005E000E015A025A035A23
:1036D00000501D15046E01501E15056E02501F1579
:1036E000066E03502015076E050E026E04C000F032
:1036F00005C001F0025005E0003600900136FF0FD2
:10370000FAD7820E0026010E012200C01BF701C06D
:103710001CF70B0E0024E96E000E0120EA6E3F0E2E
:10372000EE14016E01500F0A06E0C00E0301C66FD1
:10373000FF0E006EB3D00D0E07011B25E96E000EC3
:103740001C21EA6EEE500D1906E0C10E0301C66F92
:10375000FF0E006EA3D01BC7E9FF1CC7EAFFEECF28
:1037600000F01F0E0014016E015007010C1906E055
:10377000C20E0301C66FFF0E006E90D01BC72AF762
:103780001CC72BF70E0E07012C6F070E2D6F87EC51
:103790000EF00B6B0E0EE96E070EEA6E0B51E9266A
:1037A000D8B0EA2AEECF2AF753EC0EF000C029F782
:1037B0000C05006E016A000E015A0D0E046E000E1B
:1037C000056E09EC06F00B510026000E0122005098
:1037D0000925E96E01500A21EA6EEECF2AF753EC73
:1037E0000EF0295100180AE021C7E9F422C7EAF4D3
:1037F00023C7EBF424C7ECF4006A50D00B2B0D0E5A
:103800000B5D0CE20E0EE96E070EEA6E0B51E92617
:10381000D8B0EA2AEE50000A01E0BCD70D0E0B5DCD
:103820002AE20E0EE96E070EEA6E0B51E926D8B0B9
:10383000EA2A0C05006E016A000E015A0D0E046E94
:10384000000E056E09EC06F00B510026000E012259
:1038500000500925D96E01500A21DA6EEE50DE18AB
:103860000AE021C7E9F422C7EAF423C7EBF424C72E
:10387000ECF4006A13D00C2B1BC7E9FF1CC7EAFF4E
:10388000EECF01F001ACCED621C7E9F422C7EAF4AD
:0E38900023C7EBF424C7ECF4010E006E120007
:10389E007FEC08F0820E07010A6F010E0B6F030119
:1038AE00C651FF0A03E1FF0E006E6DD2C651FC0A2F
:1038BE0003E1FF0E006E67D2C651000A65E10F0EDE
:1038CE009615016E01C00CF701500B0A0AE00701B4
:1038DE000C510C0A06E0F80E0301C66FFF0E006EC7
:1038EE0052D297C357F798C358F799C359F79AC34B
:1038FE005AF795EC02F00050000A03E0FF0E006E3E
:10390E0042D2820E07010A6F010E0B6FFE0E0A25C0
:10391E00346F010E0B21356F31EC06F00150AA0AFF
:10392E0002E1550E001806E0FC0E0301C66FFF0EF5
:10393E00006E29D20AC7E9FF0BC7EAFFEECF01F0EE
:10394E000150E90A16E00AC7E9FF0BC7EAFFEECFFE
:10395E0001F00150EB0A0BE1020E07010A25E96E98
:10396E00000E0B21EA6EEE50900A01E102D0006AC1
:10397E0002D0010E006E005206E1FB0E0301C66F6F
:10398E00FF0E006E00D21DD00301C651FB0A19E1D5
:10399E00800E956F976B986B996B9A6B200E070143
:1039AE000A25346F000E0B21356F7AEC06F000C03D
:1039BE009BF301C09CF302C09DF303C09EF3030171
:1039CE00C66B0301C651000AD8A4D8D10B0E07014D
:1039DE000A25346F000E0B21356F31EC06F000C056
:1039EE009FF301C0A0F30D0E0A25346F000E0B21BC
:1039FE00356F56EC06F000C0A1F30E0E0A25346F9B
:103A0E00000E0B21356F31EC06F000C0A2F301C0A1
:103A1E00A3F3100E0A25346F000E0B21356F56ECF2
:103A2E0006F000C0A4F3240E0A25346F000E0B21FD
:103A3E00356F7AEC06F000C0A5F301C0A6F302C004
:103A4E00A7F303C0A8F3280E0A25346F000E0B212E
:103A5E00356F31EC06F000C0A9F301C0AAF30301E3
:103A6E00A2519725006EA3519821016E000E992147
:103A7E00026E000E9A21036E00C0ABF301C0ACF3D0
:103A8E0002C0ADF303C0AEF32C0E07010A25346F4E
:103A9E00000E0B21356F7AEC06F000C0AFF301C0BB
:103AAE00B0F302C0B1F303C0B2F3110E0A25346FA6
:103ABE00000E0B21356F31EC06F000C0B3F301C0E0
:103ACE00B4F3300E0A25346F000E0B21356F31EC36
:103ADE0006F0000E026E036E0301975100269851F8
:103AEE000122995102229A51032200C0B9F301C05A
:103AFE00BAF302C0BBF303C0BCF3ABC3B5F3ACC3A4
:103B0E00B6F3ADC3B7F3AEC3B8F30701096B030148
:103B1E00A4510701095D18E20301A551B525006EF8
:103B2E00A651B621016EA751B721026EA851B82138
:103B3E00036E00C0B5F301C0B6F302C0B7F303C005
:103B4E00B8F30701092BE3D7050E006E9FC38FF361
:103B5E00A0C390F3000E0301916F926F005005E029
:103B6E0090338F33909FFF0FFAD7000E916F926FA5
:103B7E009FC378F1A0C379F1000E01017A6F7B6FBC
:103B8E0079337833799F79337833799F000E7A6F52
:103B9E007B6F9FC32AF7A0C32BF7000E07012C6F74
:103BAE002D6F3EEC0FF000C05AF5A1C32AF7000EA0
:103BBE0007012B6F2C6F2D6F3EEC0FF000C062F5DE
:103BCE008FC32AF790C32BF791C32CF792C32DF70F
:103BDE003EEC0FF000C094F378C12AF779C12BF7B1
:103BEE007AC12CF77BC12DF73EEC0FF000C086F3A7
:103BFE00050162515A25006E00C0E3F3010E030168
:103C0E00CB6F000ECC6F000ECD6F000ECE6F00503E
:103C1E0007E0CB37CB91CC37CD37CE37FF0FF8D768
:103C2E00200E07012A6F000E2B6F2C6F2D6F3EECAE
:103C3E000FF000500301E35D006E016A000E00BE3E
:103C4E00FF0E015A00C004F0010E006E000E016E50
:103C5E00000E026E000E036E045007E00036009058
:103C6E00013602360336FF0FF8D700C0EEF401C05E
:103C7E00EFF402C0F0F403C0F1F400C02AF701C063
:103C8E002BF702C02CF703C02DF73EEC0FF000C04F
:103C9E00EDF4AFC3E4F3B0C3E5F3B1C3E6F3B2C3DF
:103CAE00E7F30401E96BEA6BEB6BEC6BB5C300F069
:103CBE00B6C301F0B7C302F0B8C303F003019751C6
:103CCE00005E9851015A9951025A9A51035A9BC358
:103CDE0082F39CC383F39DC384F39EC385F300508C
:103CEE00825F0150835B0250845B0350855B62C52B
:103CFE0000F0005007E08533843383338233859F91
:103D0E00FF0FF8D7020E8227000E8323842385230C
:103D1E00965320E1000E855D08E1000E845D05E1FD
:103D2E00FF0E835D02E1F70E825D03E30B0E966FCD
:103D3E0011D0000E855D08E1000E845D05E10F0EC9
:103D4E00835D02E1F70E825D03E3060E966F02D0ED
:103D5E00010E966F0F0E9615016E01C00CF70150F5
:103D6E000B0A0AE007010C510C0A06E0F80E0301DB
:103D7E00C66FFF0E006E07D0006A05D00301FB0E62
:083D8E00C66FFF0E006E12006B
:103D9600086A080E0C6E003408360450085ED8B067
:0E3DA60002D00826D89000360C2EF5D7120059
:103DB400E8C6E9FFE9C6EAFFEE50000A06E1C40ED0
:103DC4000301C66FFF0E006EB5D0E4C3ECF6E5C385
:103DD400EDF6E6C3EEF6E7C3EFF60401E96BEA6B32
:103DE400EB6BEC6B0601F56BEAC609F7EBC60AF759
:103DF400D6EC0FF00050010AD8A493D0FF0E0601B0
:103E0400EA25E96E000EEB21EA6E3F0EEE14016E18
:103E140001500F0A03E1010EF56FE6D7010E04010C
:103E2400E95F000EEA5BEB5BEC5B0601F5533BE0FC
:103E3400E8C609F7E9C60AF7B0EC1AF000C0F4F6D0
:103E44000050FF0A03E1FF0E006E74D00601F45126
:103E5400010A28E1E4C32AF7E5C32BF7E6C32CF7EC
:103E6400E7C32DF7E9C42EF7EAC42FF7EBC430F704
:103E7400ECC431F7F00E0701326F060E336F5DECC0
:103E84000BF00050000A03E0FF0E006E53D0ECC6A6
:103E9400E4F3EDC6E5F3EEC6E6F3EFC6E7F3010E91
:103EA400006E48D034D0EAC609F7EBC60AF7E8C674
:103EB4000BF7E9C60CF77DEC15F00050010A27E179
:103EC400E4C32AF7E5C32BF7E6C32CF7E7C32DF7C2
:103ED400E9C42EF7EAC42FF7EBC430F7ECC431F78A
:103EE400F00E326F060E336F5DEC0BF00050000ADB
:103EF40003E0FF0E006E1ED0ECC6E4F3EDC6E5F35E
:103F0400EEC6E6F3EFC6E7F3010E006E13D0010E22
:103F14000401E927000EEA23EB23EC230601F56BE9
:103F240063D7ECC6E4F3EDC6E5F3EEC6E6F3EFC6FD
:063F3400E7F3006A120031
:103F3A001C0E0301C76F000EC86F7C0EC96F070EF7
:103F4A00CA6F720EDB6F1C0EDC6F2A0EDD6F070E56
:103F5A00DE6F949A0601E851040A02E1948601D0C0
:103F6A0094969488C66AE851C612EA51C612E95173
:103F7A00C712EA5305E0EB51000AD8B4C78C03D044
:0A3F8A00EB53D8A4C78CC68A1200BE
:103F9400E1C3E1FFE2C3E2FFE8C6E6FFDFC300F0EE
:0A3FA400E0C301F017EC00F012007A
:103FAE00D4EC18F0000E001803E0FF0E006E01D0E6
:043FBE00006A120083
:103FC2006DDC820E0601E86F010EE96F820EEA6F68
:103FD200010EEB6F0301C651FF0A03E1FF0E006EF3
:103FE200B3D0C651FC0A03E1FF0E006EADD0C6513C
:103FF200000AD8A4A4D0300E0601E8250701346FC8
:10400200000E0601E9210701356F31EC06F0005080
:10401200030197250701576F0150030198210701FA
:10402200586F000E030199210701596F000E030119
:104032009A2107015A6F95EC02F00050000A03E042
:10404200FF0E006E81D0820E0601EA6F010EEB6F49
:10405200FE0EEA250701346F010E0601EB2107016E
:10406200356F31EC06F00150AA0A02E1550E001834
:1040720006E0FC0E0301C66FFF0E006E65D0EAC6B5
:1040820034F7EBC635F77AEC06F00350410A08E143
:104092000250610A05E10150520A02E10050520A3F
:1040A20006E0FA0E0301C66FFF0E006E4DD0E40E5D
:1040B2000601EA250701346F010E0601EB21070113
:1040C200356F7AEC06F00350610A08E10250410AAA
:1040D20005E10150720A02E10050720A06E0FA0E8E
:1040E2000301C66FFF0E006E2FD0E80E0601EA250F
:1040F2000701346F010E0601EB210701356F7AECDF
:1041020006F000C0BDF301C0BEF302C0BFF303C09E
:10411200C0F3EC0E0601EA250701346F010E060119
:10412200EB210701356F7AEC06F000C0C1F301C044
:10413200C2F302C0C3F303C0C4F3006A05D0FA0E8F
:0A4142000301C66FFF0E006E1200AD
:10414C00880E0701096F030E0A6F0B6B070E0C6FBD
:10415C00000E0D6FB8EC0FF0630E096F050E0A6FB1
:10416C000B6B070E0C6F000E0D6FB8EC0FF05B0EA7
:10417C00096F050E0A6F0B6B070E0C6F000E0D6F9F
:10418C00B8EC0FF0950E096F030E0A6F0B6B300E27
:10419C000C6F000E0D6FB8EC0FF07E0E096F010E58
:1041AC000A6F0B6B040E0C6F020E0D6FB8EC0FF058
:1041BC00F20E096F040E0A6F0B6B040E006E000EEC
:1041CC00016E1A0E0002F3CF0CF7F4CF0DF7B8EC1A
:1041DC000FF0FF0E01017E6FFF0E7F6FFF0E806FE1
:1041EC00FF0E816F820E7C6F030E7D6F0301C56B1A
:1041FC00936B826B836B846B856BE46BE56BE66B0B
:10420C00E76B0401E96BEA6BEB6BEC6B0301876BFF
:04421C00C66B12005B
:10422000EAC64BF7EBC64CF7E8C64DF7E9C64EF7C2
:104230000B0E07014F6F000E506FD5EC03F0006AB4
:0242400012006A
:10424200E8C6E9FFE9C6EAFFEE50000A07E1C40E3C
:104252000301C66FFF0E006EC4EF27F0EAC609F72E
:10426200EBC60AF7200E07010B6F0B0E0C6F000E48
:104272000D6FB8EC0FF0E8C6E9FFE9C6EAFFEE50B1
:104282002E0A13E1010E0601E825E96E000EE9216E
:10429200EA6EEE50000A09E1EAC6E1FFEBC6E2FF70
:1042A2002E0EE66E006AC4EF27F0E8C6E9FFE9C603
:1042B200EAFFEE502E0A24E10601010EE825E96E1E
:1042C200000EE921EA6EEE502E0A1AE1020EE825EE
:1042D200E96E000EE921EA6EEE50000A11E1EAC62B
:1042E200E1FFEBC6E2FF2E0EE66E010EEA25E16E5D
:1042F200000EEB21E26E2E0EE66E006AC4EF27F08E
:10430200E8C6E9FFE9C6EAFFEE502E0A07E1E20E2F
:104312000301C66FFF0E006EC4EF27F0E8C62AF74E
:10432200E9C62BF76AEC0EF000C0FAF601C0FBF604
:10433200E8C609F7E9C60AF7CFEC17F000C0F7F6AE
:104342000050FF0A04E1FF0E006EC4EF27F0010ED9
:104352000601FA5D006E000EFB59016E0050E82561
:10436200E96E0150E921EA6EEE502E0A10E0010ECC
:10437200FA5D006E000EFB59016E0050E825E96EF1
:104382000150E921EA6EEE50200A01E015D0800EBC
:10439200006E800EFB19005C02E1FA5100080CE28B
:1043A200FA51E825E16EFB51E921E26EE66A010E5F
:1043B200FA5F000EFB5BCBD7000EFB1902E1000E89
:1043C200FA1904E1FF0E006EC4EF27F0000EF7BFEA
:1043D200FF0E006E000E001802E1000EF7190BE04E
:1043E200000EF7BFFF0E006E000E001802E1020E73
:1043F200F71901E08FD0F26BF16B080EF15D2EE23E
:10440200F251E825E96E000EE921EA6EEE502E0A1D
:104412000AE0F251E825E96E000EE921EA6EEE505B
:10442200000A01E001D01AD0F151EA25FC6F000E1A
:10443200EB21FD6FF251E825E96E000EE921EA6EEB
:10444200EECF2AF753EC0EF0FCC6E1FFFDC6E2FF09
:1044520000C0E6FF0601F22BF12BCFD7F251E8257F
:10446200E96E000EE921EA6EEE50000A0BE1EAC69F
:1044720009F7EBC60AF707010B6B0C6B83EC16F01E
:10448200C4EF27F00601F251E825E96E000EE9219A
:10449200EA6EEE502E0A02E1F22B07D0E20E030181
:1044A200C66FFF0E006EC4EF27F0080E0601F16F13
:1044B2000B0EF15D24E2F251E825E96E000EE921CE
:1044C200EA6EEE50000A01E11AD0F151EA25FC6FC2
:1044D200000EEB21FD6FF251E825E96E000EE92195
:1044E200EA6EEECF2AF753EC0EF0FCC6E1FFFDC6F2
:1044F200E2FF00C0E6FF0601F22BF12BD9D7EAC694
:1045020009F7EBC60AF707010B6B0C6B83EC16F08D
:10451200C4EF27F0000E0601F7BFFF0E006E000E7B
:10452200001802E1010EF719D8A4C1EF27F0FAC66C
:10453200F4F6010EFA5DF56F000EFB59F66FF551B8
:10454200E825E96EF651E921EA6EEE502E0A0EE0F8
:10455200800E006E800EF619005C02E1F551000833
:1045620005E2010EF55F000EF65BE9D7800E006EE4
:10457200800EF619005C02E1F55100084EE2F5C624
:10458200F4F6F54BF62B080EF16F0B0EF15D45E2DA
:10459200F551E825E96EF651E921EA6EEE50000A7E
:1045A2003CE0F551E825E96EF651E921EA6EEECFDD
:1045B20034F75DEC06F000521AE10601F151EA25EA
:1045C200FC6F000EEB21FD6FF551E825E96EF65107
:1045D200E921EA6EEECF2AF753EC0EF0FCC6E1FFBA
:1045E200FDC6E2FF00C0E6FF0601F12B13D0060173
:1045F200F551E825E96EF651E921EA6EEE50200AFE
:1046020009E0F151EA25E16E000EEB21E26E5F0E48
:10461200E66EF12BF54BF62BB8D7F4C6F5F6000E85
:10462200F66FF26BF16B080EF15D57E2F251E8257D
:10463200E96E000EE921EA6EEE50000A01E14DD06A
:10464200000EF61902E1F551F21901E146D0F251DC
:10465200E825E96E000EE921EA6EEE502E0A0AE024
:10466200F251E825E96E000EE921EA6EEE50200AC9
:1046720001E001D030D0F251E825E96E000EE921C7
:10468200EA6EEECF34F75DEC06F000521AE1060155
:10469200F151EA25FC6F000EEB21FD6FF251E82586
:1046A200E96E000EE921EA6EEECF2AF753EC0EF026
:1046B200FCC6E1FFFDC6E2FF00C0E6FF0601F12BEA
:1046C2000AD00601F151EA25E16E000EEB21E26EFD
:1046D2005F0EE66EF12BF22BA6D7010EF86F060ED7
:1046E200F15D03E2F1C6ECF602D0060EEC6FECC609
:1046F200F4F6EC51EA25E16E000EEB21E26E7E0E3D
:10470200E66E010EF36FF35109083CE3F851000A1B
:1047120039E0F451010F006E016A000E01220050CF
:10472200EA25E16E0150EB21E26E300EF325006EB8
:1047320000C0E6FFEAC609F7EBC60AF707010B6BF2
:104742000C6B83EC16F000C0F8F60050FF0A04E18F
:10475200FF0E006EC4EF27F00601F851010A0FE1C7
:10476200E8C609F7E9C60AF7B0EC1AF000C0F9F694
:104772000050000A04E0F9C600F0C4EF27F0060179
:10478200F32BC1D7F851000AD8B476D0050EF15DEB
:1047920003E2F1C6EDF602D0050EED6FEDC6F4F6BA
:1047A200ED51EA25E16E000EEB21E26E7E0EE66E21
:1047B2000A0EF36FF35163085FE3F851000A5CE0FD
:1047C200F451010F006E016A000E01220050EA2529
:1047D200FC6F0150EB21FD6F0A0E046EF3C600F070
:1047E200CBEC1EF0300E0026FCC6E1FFFDC6E2FF58
:1047F20000C0E6FF020EF425006E016A000E0122DF
:104802000050EA25FC6F0150EB21FD6F0A0E046E89
:10481200F3C600F0CBEC1EF008C000F0300E00260C
:10482200FCC6E1FFFDC6E2FF00C0E6FFEAC609F7EB
:10483200EBC60AF707010B6B0C6B83EC16F000C09A
:10484200F8F60050FF0A03E1FF0E006E9CD306014A
:10485200F851010A0EE1E8C609F7E9C60AF7B0EC19
:104862001AF000C0F9F60050000A03E0F9C600F0A1
:104872008AD30601F32B9ED7F851000AD8B49ED0F2
:10488200040EF15D03E2F1C6EEF602D0040EEE6F05
:10489200EEC6F4F6EE51EA25E16E000EEB21E26E71
:1048A2007E0EE66E640EF36F800E030A006E800EBB
:1048B200005C02E1F351E708D8A080D0F851000A69
:1048C200D8B47CD0F451010F006E016A000E0122AF
:1048D2000050EA25FC6F0150EB21FD6F640E046E5F
:1048E200F3C600F0CBEC1EF0300E0026FCC6E1FF52
:1048F200FDC6E2FF00C0E6FF020EF425006E016A6B
:10490200000E01220050EA25FC6F0150EB21FD6FE1
:104912000A0E046EF3C600F0CBEC1EF00A0E046E13
:10492200CBEC1EF008C000F0300E0026FCC6E1FF02
:10493200FDC6E2FF00C0E6FF030EF425006E016A29
:10494200000E01220050EA25FC6F0150EB21FD6FA1
:104952000A0E046EF3C600F0CBEC1EF008C000F0A5
:10496200300E0026FCC6E1FFFDC6E2FF00C0E6FFF6
:10497200EAC609F7EBC60AF707010B6B0C6B83EC6F
:1049820016F000C0F8F60050FF0A03E1FF0E006EB9
:10499200FAD20601F851010A0EE1E8C609F7E9C6A2
:1049A2000AF7B0EC1AF000C0F9F60050000A03E072
:1049B200F9C600F0E8D20601F32B76D7F851000AC7
:1049C200D8B4C3D0030EF15D03E2F1C6EFF602D014
:1049D200030EEF6FEFC6F4F6EF51EA25E16E000E1B
:1049E200EB21E26E7E0EE66EE80EF36F800E270A72
:1049F200006E800E005C02E1F3510F08D8A0A5D032
:104A0200F851000AD8B4A1D0F451010F006E016A26
:104A1200000E01220050EA25FC6F0150EB21FD6FD0
:104A2200E80E046E030E056EF3C600F0000E016E72
:104A32004CEC1AF0300E0026FCC6E1FFFDC6E2FF88
:104A420000C0E6FF020E0601F425006E016A000EA8
:104A520001220050EA25FC6F0150EB21FD6F640E2C
:104A6200046EF3C600F0CBEC1EF00A0E046ECBEC23
:104A72001EF008C000F0300E0026FCC6E1FFFDC6A5
:104A8200E2FF00C0E6FF030EF425006E016A000E8D
:104A920001220050EA25FC6F0150EB21FD6F0A0E46
:104AA200046EF3C600F0CBEC1EF00A0E046ECBECE3
:104AB2001EF008C000F0300E0026FCC6E1FFFDC665
:104AC200E2FF00C0E6FF040EF425006E016A000E4C
:104AD20001220050EA25FC6F0150EB21FD6F0A0E06
:104AE200046EF3C600F0CBEC1EF008C000F0300EEE
:104AF2000026FCC6E1FFFDC6E2FF00C0E6FFEAC6F3
:104B020009F7EBC60AF707010B6B0C6B83EC16F087
:104B120000C0F8F60050FF0A03E1FF0E006E33D228
:104B22000601F851010A0EE1E8C609F7E9C60AF7DB
:104B3200B0EC1AF000C0F9F60050000A03E0F9C622
:104B420000F021D20601F32B51D7F851000AD8B454
:104B5200F2D0020EF15D03E2F1C6F0F602D0020ECF
:104B6200F06FF0C6F4F6F051EA25E16E000EEB218B
:104B7200E26E7E0EE66E100EF36F800E000A006E7D
:104B8200800E005C08E1000E010805E1000E8608B7
:104B920002E1F3519F08D8A0CED0F851000AD8B450
:104BA200CAD0F451010F006E016A000E01220050BA
:104BB200EA25FC6F0150EB21FD6F100E046E270EEB
:104BC200056EF3C600F0000E016E4CEC1AF0300ECA
:104BD2000026FCC6E1FFFDC6E2FF00C0E6FF020EB2
:104BE2000601F425006E016A000E01220050EA253A
:104BF200FC6F0150EB21FD6FE80E046E030E056E93
:104C0200F3C600F0000E016E4CEC1AF00A0E046EB0
:104C1200000E056E4CEC1AF008C000F009C001F05D
:104C2200300E0026FCC6E1FFFDC6E2FF00C0E6FF33
:104C3200030E0601F425006E016A000E01220050E7
:104C4200EA25FC6F0150EB21FD6F640E046EF3C682
:104C520000F0CBEC1EF00A0E046ECBEC1EF008C086
:104C620000F0300E0026FCC6E1FFFDC6E2FF00C0E8
:104C7200E6FF040EF425006E016A000E01220050C8
:104C8200EA25FC6F0150EB21FD6F0A0E046EF3C69C
:104C920000F0CBEC1EF00A0E046ECBEC1EF008C046
:104CA20000F0300E0026FCC6E1FFFDC6E2FF00C0A8
:104CB200E6FF050EF425006E016A000E0122005087
:104CC200EA25FC6F0150EB21FD6F0A0E046EF3C65C
:104CD20000F0CBEC1EF008C000F0300E0026FCC63F
:104CE200E1FFFDC6E2FF00C0E6FFEAC609F7EBC638
:104CF2000AF707010B6B0C6B83EC16F000C0F8F699
:104D02000050FF0A03E1FF0E006E3DD10601F8518B
:104D1200010A0EE1E8C609F7E9C60AF7B0EC1AF093
:104D220000C0F9F60050000A03E0F9C600F02BD1EA
:104D32000601F32B22D7F851000AD8B417D1010E7D
:104D4200EA25E16E000EEB21E26E7E0EE66EA00E0B
:104D5200F36F800E000A006E800E005C08E1000E08
:104D62000F0805E1000E420802E1F3513F08D8A006
:104D7200FDD0F851000AD8B4F9D0020EF425006E25
:104D8200016A000E01220050EA25FC6F0150EB215E
:104D9200FD6FA00E046E860E056E010E066E000EED
:104DA200076EF3C600F0000E016E026E036E17EC82
:104DB20012F0300E0026FCC6E1FFFDC6E2FF00C085
:104DC200E6FF030E0601F425006E016A000E0122C1
:104DD2000050EA25FC6F0150EB21FD6F100E046EAE
:104DE200270E056EF3C600F0000E016E4CEC1AF0B1
:104DF2000A0E046E000E056E4CEC1AF008C000F0AC
:104E020009C001F0300E0026FCC6E1FFFDC6E2FF3C
:104E120000C0E6FF040E0601F425006E016A000ED2
:104E220001220050EA25FC6F0150EB21FD6FE80ED4
:104E3200046E030E056EF3C600F0000E016E4CEC1C
:104E42001AF00A0E046E000E056E4CEC1AF008C041
:104E520000F009C001F0300E0026FCC6E1FFFDC6DD
:104E6200E2FF00C0E6FF050E0601F425006E016AAE
:104E7200000E01220050EA25FC6F0150EB21FD6F6C
:104E8200640E046EF3C600F0CBEC1EF00A0E046E44
:104E9200CBEC1EF008C000F0300E0026FCC6E1FF8D
:104EA200FDC6E2FF00C0E6FF060EF425006E016AB1
:104EB200000E01220050EA25FC6F0150EB21FD6F2C
:104EC2000A0E046EF3C600F0CBEC1EF00A0E046E5E
:104ED200CBEC1EF008C000F0300E0026FCC6E1FF4D
:104EE200FDC6E2FF00C0E6FF070EF425006E016A70
:104EF200000E01220050EA25FC6F0150EB21FD6FEC
:104F02000A0E046EF3C600F0CBEC1EF008C000F0EF
:104F1200300E0026FCC6E1FFFDC6E2FF00C0E6FF40
:104F2200EAC609F7EBC60AF707010B6B0C6B83ECB9
:104F320016F000C0F8F60050FF0A03E1FF0E006E03
:104F420022D00601F851010A0EE1E8C609F7E9C6C6
:104F52000AF7B0EC1AF000C0F9F60050000A03E0BC
:104F6200F9C600F010D00601F32BF3D6F851000A6F
:104F720006E0BF0E0301C66FFF0E006E04D003D021
:084F8200FF0E006E00D01200CA
:104F8A000B0E0601E825E16E000EE921E26EEAC683
:064F9A00E6FF006A1200B0
:104FA000800E0601E819006E800E000A005C0CE31A
:104FB000800EE8BF7F0E006E000E800A005C02E1EA
:104FC000040EE85D01E206D0D80E0301C66FFF0EA5
:104FD000006E67D11A0E006E000E016EE8C604F076
:104FE000000E0601E8BFFF0E056E09EC06F0F20E9A
:104FF0000026040E012200C0F1F601C0F2F6180EE0
:105000000024E96E000E0120EA6EEE50000A06E16F
:10501000DC0E0301C66FFF0E006E43D1140E0601B5
:10502000F125D96E000EF221DA6EDECF01F0DECF6F
:1050300002F0DECF03F0DECF04F0EC51045C08E1B7
:10504000EB51035C05E1EA51025C02E1E951015CCC
:1050500006E2DB0E0301C66FFF0E006E22D1100EBA
:105060000601F125E96E000EF221EA6EEECF01F0A5
:10507000EECF02F0EECF03F0EECF04F00450EC19C7
:1050800008E10350EB1905E10250EA1902E1015071
:10509000E91902E1006A05D1100EF125E96E000E52
:1050A000F221EA6EEECF01F0EECF02F0EECF03F088
:1050B000EECF04F0E3C300F001C005F002C006F03B
:1050C00003C007F004C008F0005007E008320732C0
:1050D00006320532089EFF0FF8D7E3C300F0E9C699
:1050E00001F0EAC602F0EBC603F0ECC604F0005093
:1050F00007E00432033202320132049EFF0FF8D778
:105100000850041808E10750031805E1065002187A
:1051100002E10550011811E10601100EF125E16EC2
:10512000000EF221E26EE9C6E6FFEAC6E6FFEBC634
:10513000E6FFECC6E6FF006AB4D00601100EF125CA
:10514000E16E000EF221E26EE9C6E6FFEAC6E6FF76
:10515000EBC6E6FFECC6E6FF100EF125E96E000E89
:10516000F221EA6EEECF01F0EECF02F0EECF03F0C7
:10517000EECF04F0E3C300F001C0EDF602C0EEF69E
:1051800003C0EFF604C0F0F6005007E0F033EF3351
:10519000EE33ED33F09FFF0FF8D7040EF125E16EEB
:1051A000000EF221E26EF1C6E9FFF2C6EAFFEECF91
:1051B00000F0EECF01F0EECF02F0EECF03F000C032
:1051C000E6FF01C0E6FF02C0E6FF03C0E6FFF051C4
:1051D000000808E1EF51000805E1EE51000802E186
:1051E000ED5100085DE2040EF125F36F000EF2218F
:1051F000F46FF3C6E9FFF4C6EAFFEECF4BF7EECF4C
:105200004CF7EECF4DF7EECF4EF730EC03F0F3C690
:10521000E1FFF4C6E2FF00C0E6FF01C0E6FF02C006
:10522000E6FF03C0E6FF040E0601F125D96E000E6D
:10523000F221DA6EDECF01F0DECF02F0DECF03F036
:10524000DECF04F00F0E041808E1FF0E031805E18D
:10525000FF0E021802E1FF0E01181AE1100EF125EF
:10526000E16E000EF221E26E140EF125E96E000EE1
:10527000F221EA6EEECFE6FFEECFE6FFEECFE6FFDD
:10528000EECFE6FFDB0E0301C66FFF0E006E09D006
:10529000010E0601ED5F000EEE5BEF5BF05B97D752
:0452A000006A12008E
:1052A4000D0E0601E825E16E000EE921E26EEAC664
:0652B400E6FF006A120093
:1052BA00ED0E0701096F060E0A6FFF0E0B6F0D0E3A
:1052CA000C6F000E0D6FB8EC0FF00601EC6B0D0EB3
:1052DA00EC5D1CE2ED0EE16E060EE26EEC51E1268B
:1052EA00D8B0E22AEC51EA25E96E000EEB21EA6E0B
:1052FA00EECFE6FFEC51EA25E96E000EEB21EA6EED
:10530A00EE50000A01E102D0EC2BE1D7010EE825AC
:10531A00E16E000EE921E26EEDC6E6FF030EE82516
:10532A00E16E000EE921E26EEEC6E6FF050EE82503
:10533A00E16E000EE921E26EEFC6E6FF070EE825F0
:10534A00E16E000EE921E26EF0C6E6FF090EE825DD
:10535A00E16E000EE921E26EF1C6E6FF0E0EE825C7
:10536A00E16E000EE921E26EF2C6E6FF100EE825B4
:10537A00E16E000EE921E26EF3C6E6FF120EE825A1
:10538A00E16E000EE921E26EF4C6E6FF140EE8258E
:10539A00E16E000EE921E26EF5C6E6FF160EE8257B
:1053AA00E16E000EE921E26EF6C6E6FF180EE82568
:1053BA00E16E000EE921E26EF7C6E6FF1C0EE82553
:1053CA00E16E000EE921E26EF8C6E6FF1E0EE82540
:1053DA00E16E000EE921E26EF9C6E6FFEC51010F1B
:1053EA00026E036A000E0322B7D0010EE825006E92
:1053FA00000EE921016E010E0024E16E000E01206B
:10540A00E26EFF0EE66E030EE825006E000EE9213D
:10541A00016E010E0024E16E000E0120E26EFF0E05
:10542A00E66E050EE825006E000EE921016E010EFA
:10543A000024E16E000E0120E26EFF0EE66E070EFA
:10544A00E825006E000EE921016E010E0024E16ECE
:10545A00000E0120E26EFF0EE66E090EE825006ED0
:10546A00000EE921016E010E0024E16E000E0120FA
:10547A00E26EFF0EE66E0E0EE825006E000EE921C2
:10548A00016E010E0024E16E000E0120E26EFF0E95
:10549A00E66E100EE825006E000EE921016E010E7F
:1054AA000024E16E000E0120E26EFF0EE66E120E7F
:1054BA00E825006E000EE921016E010E0024E16E5E
:1054CA00000E0120E26EFF0EE66E140EE825006E55
:1054DA00000EE921016E010E0024E16E000E01208A
:1054EA00E26EFF0EE66E160EE825006E000EE9214A
:1054FA00016E010E0024E16E000E0120E26EFF0E25
:10550A00E66E180EE825006E000EE921016E010E06
:10551A000024E16E000E0120E26EFF0EE66E1C0E04
:10552A00E825006E000EE921016E010E0024E16EED
:10553A00000E0120E26EFF0EE66E1E0EE825006EDA
:10554A00000EE921016E010E0024E16E000E012019
:10555A00E26EFF0EE66E58D0000E031802E1000E4E
:10556A000218D8B442D7000E031802E1010E02183D
:10557A00D8B449D7000E031802E1020E0218D8B4B3
:10558A0050D7000E031802E1030E0218D8B457D7F9
:10559A00000E031802E1040E0218D8B45ED7000EFA
:1055AA00031802E1050E0218D8B465D7000E0318D5
:1055BA0002E1060E0218D8B46CD7000E031802E1F5
:1055CA00070E0218D8B473D7000E031802E1080EAA
:1055DA000218D8B47AD7000E031802E1090E02188D
:1055EA0082E0000E031802E10A0E02188AE0000E99
:1055FA00031802E10B0E021892E0000E031802E1F2
:0C560A000C0E02189AE0A7D7006A1200EC
:10561600E8C6E1FFE9C6E2FFEAC6E6FF006A120055
:10562600E4C3F7F6E5C3F8F6E6C3F9F6E7C3FAF618
:105636000601FF6B0301B2510601FA5D0EE103019B
:10564600B1510601F95D09E10301B0510601F85DAA
:1056560004E10301AF510601F75D15E3030185512E
:105666000601FA5D0EE1030184510601F95D09E1C7
:10567600030183510601F85D04E10301825106012D
:10568600F75D01E206D0F40E0301C66FFF0E006E51
:105696009DD1820E0601ED6F010EEE6FF7C64BF738
:1056A600F8C64CF7F9C64DF7FAC64EF7FDEC03F00F
:1056B60000C005F701C006F702C007F703C008F7E8
:1056C60000C057F701C058F702C059F703C05AF790
:1056D60095EC02F00050000A03E0FF0E006E76D152
:1056E6000601EF6BF06BF16BF26B0401F1510601F1
:1056F600F25D0EE10401F0510601F15D09E10401DC
:10570600EF510601F05D04E10401EE510601EF5D83
:10571600D8B08FD0EE5101017D1903E17C5106010D
:10572600ED191CE1010E07010527000E06230723CC
:105736000823820E0601ED6F010EEE6F05C757F7BF
:1057460006C758F707C759F708C75AF795EC02F086
:105756000050000A03E0FF0E006E38D1EDC6E9FFE7
:10576600EEC6EAFFEECF01F00150E50A0AE0EDC60B
:10577600E9FFEEC6EAFFEECF01F0200E015C01E381
:1057860018D0EDC6E9FFEEC6EAFFEECF01F0140E23
:10579600015C0EE20B0E0601ED25E96E000EEE2110
:1057A600EA6E3F0EEE14016E01500F0A01E101D0C0
:1057B60003D00601FF6B32D00601FF51000A10E14B
:1057C600EFC6F3F6F0C6F4F6F1C6F5F6F2C6F6F64F
:1057D600F7C601F7F8C602F7F9C603F7FAC604F7E3
:1057E600FF2BFF51E8191AE1EBC6E1FFECC6E2FF19
:1057F600F3C6E6FFF4C6E6FFF5C6E6FFF6C6E6FF25
:10580600E9C6E1FFEAC6E2FF01C7E6FF02C7E6FF17
:1058160003C7E6FF04C7E6FF006AD8D0200EED27CF
:10582600000EEE23010EEF27000EF023F123F223E4
:105836005CD7F7C64BF7F8C64CF7F9C64DF7FAC66C
:105846004EF730EC03F000C0FBF601C0FCF602C0D8
:10585600FDF603C0FEF603500F0A08E10250FF0AE8
:1058660005E10150FF0A02E10050FF0AD8A4A5D0C5
:1058760078EC13F000C0FBF601C0FCF602C0FDF6A2
:1058860003C0FEF603500F0A08E10250FF0A05E1C5
:105896000150FF0A02E10050FF0A06E1F20E030181
:1058A600C66FFF0E006E92D0FBC609F7FCC60AF75C
:1058B600FDC60BF7FEC60CF7F7C60DF7F8C60EF7D2
:1058C600F9C60FF7FAC610F7C6EC12F00050000A38
:1058D60003E0FF0E006E7AD0820E0701096F010EFB
:1058E6000A6F0B6B000E0C6F020E0D6FB8EC0FF00B
:1058F600FBC64BF7FCC64CF7FDC64DF7FEC64EF78A
:10590600FDEC03F000C005F701C006F702C007F77B
:1059160003C008F70701006B0301A1510701005DF1
:1059260019E205C72AF706C72BF707C72CF708C7DA
:105936002DF7010E0527000E062307230823F8EC92
:105946000DF00050000A03E0FF0E006E3FD0070185
:10595600002BE2D70601FF51000A15E1EBC6E1FF75
:10596600ECC6E2FFE66AE66AE66AE66AE9C6E1FFCF
:10597600EAC6E2FFFBC6E6FFFCC6E6FFFDC6E6FF9B
:10598600FEC6E6FF18D0EBC6E1FFECC6E2FFF3C6A3
:10599600E6FFF4C6E6FFF5C6E6FFF6C6E6FFE9C68D
:1059A600E1FFEAC6E2FF01C7E6FF02C7E6FF03C75B
:1059B600E6FF04C7E6FF006A09D0FBC6F7F6FCC699
:0E59C600F8F6FDC6F9F6FEC6FAF634D6120063
:1059D4000401E8510601E825016E000EE921026E7A
:1059E400000E006E0250005C02E10150FF0806E266
:1059F400BE0E0301C66FFF0E006E01D0006A1200D6
:105A0400E8C62AF7E9C62BF76AEC0EF0800E026EA0
:105A1400800E0118025C02E10050080803E3010E45
:105A2400006E11D0E8C62AF7E9C62BF76AEC0EF02F
