:02000000972D3A
:10000800FF00030E8301DD000A08DE008A01700884
:10001800A3007108A2007208A1000408A4000C1D26
:100028002D280C118E018F014508840015088000C9
:10003800450A8400160880004108D9004208DA0001
:100048004308DB004408DC00C101C201C301C4014C
:10005800C0140C1C46280C1002303F07F200023076
:100068003F0784000008013EF00000300318013EFD
:10007800840A0007F1007208840070088000710883
:10008800840A80002308F0002208F1002108F20009
:10009800240884005E088A005D0E8300FF0E7F0E30
:0200A80009004D
:0E00AA00213083120313FD00FD0B59280800BE
:1000B8000F3083120313FC004730FD00FD0B62284C
:0A00C800FC0B622800000000080095
:0600D20000000000080020
:0800D800FA1FF21300300800CA
:1000E00083120313EE1B76288813772888176E1B5C
:1000F0007B2808137C280817EE1A8028881281288C
:1001000088166E1A852808128628081640188A282C
:1001100008148B280810881469208810EE1992287A
:100120008813932888176E1997280813982808179A
:10013000EE189C2888129D2888166E18A12808128F
:10014000A22808164018A6280814A7280810881402
:1001500069208810401CAE285C20AF28552008007C
:100160007B15FB1FBA280130F300F201F101F00109
:08017000FA0DF20CFF3008004B
:10017800FB14FB1FC628FF30F300F200F100F0006B
:08018800FA0DF20CFF30080033
:0E019000F201F101F001F801F3010030080066
:0E019E00831203133E088A003D088200080009
:1001AC0083120313FA017308031D7A147708031DD5
:1001BC00FA147A0803192229033A0319ED287A183C
:1001CC00EA28F61F20291E29F21F1E292029720851
:1001DC008039FA00F21376088039F6137A0603197F
:1001EC00FB287A0803191E292029770873020319A2
:1001FC000229031C16291A297608720203190929E7
:10020C00031C16291A297508710203191029031CDD
:10021C0016291A29740870020319222903181A299D
:10022C00FA08031920291E29FA0803191E29202966
:10023C000314080003100800031403150800080039
:10024C008312031340106C08EE0070204014080059
:10025C007C186429FC1835297C1983292E29A001C6
:10026C007208031D55297108F2007008F100780816
:10027C00F000F801A0157208031D55297108F20051
:10028C007008F100F001A01120167208031D552909
:10029C007108F200F101A0157208031977292008E2
:1002AC00F302031D031C7B290310F21B6429F80DB8
:1002BC00F00DF10DF20DF30B5B297B297B1B701CF0
:1002CC007F29F81F7F29F00A0319F10A0319F20A92
:1002DC00031D7F29F20CF10CF00CF30A031983298E
:1002EC007F290130FC00C82086290230FC00B02098
:1002FC0086290430FC006C2086290830FC00BC20C8
:04030C0000000800E5
:1003100083120313FB017308031D77080319DF29F8
:1003200072087606FA007708F3077E30031C9C29D2
:10033000F3020318E2299F29F302031CE52972083E
:10034000F8007108FC007008FD00F817F61703109C
:10035000F201F101F0011830A0007D1CB9297408E8
:10036000F00775080318750FF10776080318760F64
:10037000F207F20CF10CF00CF80CFC0CFD0C031065
:10038000A00BAD29F21BC929F80DF00DF10DF20DEE
:10039000F3037B1B701CDB29F81FDB29F00A031910
:1003A000F10A0319F20A031DDB29F20CF10CF00C1F
:1003B000F30A0319E229FA1FF2130030E72901308A
:1003C000C820E7290230BC20E7290430B020000013
:0203D000080023
:0603D200FB15FF300800DE
:1003D800831203136C08F2007208F100F20A6D0828
:1003E800F000ED0A700884000008F000710884002D
:1003F800700880007108840000080319042AF02995
:060408006C08F000080082
:10040E0083120313F8010830FC00700DF80D740808
:10041E00F8020318142AF8070310F00DFC0B0C2A2F
:02042E000800C4
:1004300083120313EA01EB015F08E6006008E7009E
:100440006108E8006208E9006908FF3A031D322AE2
:100450006808FF3A031D322A6708FF3A031D322A53
:100460006608FF3A031D3C2A6308EC002B30ED00C0
:10047000EC210330F000112C0130E400E81F4B2A7E
:1004800080306806F0007008E800E40A6308840021
:100490002D308000E30A0030F0006906031D5A2A5F
:1004A00070086806031D5A2A70086706031D5A2A39
:1004B0006608003A031D632A6308EC003330ED0040
:1004C000EC21F001112C6908FF3A031D712A68081C
:1004D000003A031D712A6708003A031D712A660855
:1004E000003A031D7B2A6308EC002F30ED00EC215D
:1004F0006408F000112C0030F4000030F5000030EA
:10050000F6007F30F7006608F0006708F100680821
:10051000F2006908F300D620013003180030F00023
:1005200070080319AE2A6608F0006708F100680831
:10053000F2006908F3000030F4000030F5002030CC
:10054000F6008230F70088217008E6007108E700A5
:100550007208E8007308E900EB037B2A0030F4001E
:100560000030F5002030F6008230F7006608F00019
:100570006708F1006808F2006908F300D62001302E
:10058000031C0030F00070080319E12A6608F0002F
:100590006708F1006808F2006908F300CD30F40044
:1005A000CC30F5004C30F6007B30F7008821700825
:1005B000E6007108E7007208E8007308E900EB0A3A
:1005C000AE2AFF306605F800FF306705F9007F307E
:1005D0006805FA0000306905FB007808F400790826
:1005E000F5007A08F6007B08F700F40DF50DF60D1E
:1005F000F70D741000306605F00000306705F1005B
:1006000000306805F200FF306905F3007008E6006D
:100610007108E7007208E8007308E90074086604CE
:10062000F00075086704F10076086804F2007708A6
:100630006904F3007008E6007108E7007208E8003A
:100640007308E9007F306902F0007008E5000130AE
:10065000E9007008F4006608F0006708F100680817
:10066000F2006908F300740803193D2BF00DF10D39
:10067000F20DF30D7010FF3E342B7008E600710888
:10068000E7007208E8007308E9006908303EF000EE
:100690006308840070088000E30A80306B06F00075
:1006A0008030013A7002031C5E2B8030063AF00065
:1006B00080306B067002031C5E2B652B6308840080
:1006C0002E308000E30A0130EA000630E5006508BC
:1006D000003A0319C32BE9016608F0006708F1002E
:1006E0006808F2006908F300F00DF10DF20DF30D4A
:1006F0007010F00DF10DF20DF30D70106608F0079B
:1007000067080318670FF10768080318680FF207F6
:1007100069080318690FF3077008E6007108E7001D
:100720007208E8007308E9006608F0006708F10045
:100730006808F2006908F300F00DF10DF20DF30DF9
:1007400070107008E6007108E7007208E80073088E
:10075000E9006908303EF0006308840070088000FA
:10076000E30A6A08003A031DC12BEB036B08003A49
:10077000031DC12B630884002E308000E30A013082
:10078000EA00E503672BFF30630784000008303A76
:10079000031DCC2BE303C32BFF3063078400000849
:1007A0002E3A031DD42BE3036B08003A03190D2CDA
:1007B0006308840065308000E30A80306B06F00037
:1007C0008030003A70020318ED2B630884002D304E
:1007D0008000E30A6B08003CEB006B08E5006B0847
:1007E000093C0318FF2B0A30F4006508F0000722CB
:1007F0003030F0076308840070088000E30A0A3094
:10080000F4006508F00007227808F0003030F007A7
:100810006308840070088000E30A63088400800194
:04082000F0010800DB
:10082400831203137008F8007108F0007208F100D5
:100834007308F200F301FB01FC019E30F300FA019E
:10084400F21F302CF809F009F109F209F80A03192A
:10085400F00A0319F10A0319F20AFA170230FC002C
:040864002E21080039
:10086800831203137408003A031D4F2C7508003ACD
:10087800031D4F2C7608003A031D4F2C7708003AC9
:10088800031D4F2CFF30F000FF30F1007F30F200E5
:10089800FF30F300EA2C8312031377080319DE2CC8
:1008A80073080319E12C720876068039FA00F217EA
:1008B800F617A0017208F8007108FC007008FD0026
:1008C8007408FD027508031C750FFC027608031CEA
:1008D800760FF802F801FC01FD01031C7A2C0310C5
:1008E800F20CF10CF00CF80C0130A0007708F302C0
:1008F800031C842C7E302007F3070318E42C892C72
:100908007E302007F307031CE72C1830FA07FD0D8B
:10091800FC0DF80DF00DF10DF20DA00D7408F002AC
:100928007508031C750FF1027608031C760FF20296
:10093800760DA004201CA22C7D14AD2C7408F007A1
:1009480075080318750FF10776080318760AF20779
:100958007D10FA031F307A05031D8B2C7B1B7D1C31
:10096800D42C0310F00DF10DF20DA00D7408F00257
:100978007508031C750FF1027608031C760FF20246
:10098800760D20040139FD070318FC0A0319F80A3B
:10099800031DD42CF80CFC0CFD0CF30A0319E42CF1
:1009A800FA1FF8137808F2007C08F1007D08F000BF
:1009B8000030E92C0130E921E92C0230C820E92C6B
:0E09C8000430BC20E92C0830B02000000800EC
:1009D600FD2C803083120313DF00102DC030DF00A2
:1009E600102D9430DF00102DD430DF00102D803014
:1009F600DF00102D831203135F08013A0319EC2C54
:100A06005F08023A0319F12C5F08033A0319F42C24
:100A16005F08043A0319F72CFA2C6003F0005F080C
:100A2600F0077008DF007008EE0070204010E20149
:100A360062086107840000080319292D620861070E
:100A460084000008EC002621E20A1B2D4014080051
:100A560083160313881008100812881208138813C7
:100A660083128810081088130813881208125C2055
:100A76005C205C20881608168814692088105C2083
:100A86008814692088105C208814692088105C20EE
:100A960008128814692088105C2088146920881040
:100AA600881288178814692088105C208813081615
:100AB60088146920881008128814692088105C2020
:100AC60088146920881008168814692088105C200C
:100AD60008128814692088108817081788160816BF
:0C0AE6008814692088105C20401408006F
:100AF200CF208A110A128000840ABD0A0319BE0A95
:080B0200F003031D792D08002A
:100B0A0083120313E00160085F07840000080319D9
:100B1A00962D60085F0784000008EC002621E00A91
:040B2A00882D08000A
:100B2E0022262B250130EE0070200C30EE007020B6
:100B3E000130DF000130E0002530E100EB248B179F
:100B4E000B1783160C150C1407158713013083121F
:100B5E009000053097004130BF004130C500C010F5
:100B6E001014C01CFC2DC0105908F0005A08F100DA
:100B7E005B08F2005C08F30012247008F4007108A0
:100B8E00F5007208F6007308F7000030F00024300C
:100B9E00F1007430F2009230F30034247008C60075
:100BAE007108C7007208C8007308C9007008DF001A
:100BBE007108E0007208E1007308E2004A30E300B9
:100BCE0018220230DF000130E0004A30E100EB2451
:100BDE003530DF0085251A30FC00F830FD00FD0BA6
:100BEE00F62DFC0BF62D0000032E80308706063006
:0C0BFE00FD00FD0B002E0000B82D042EA1
:100C440025308400183083120313F0000A30BD00ED
:080C54000630BE0079250800FE
:0C0C140048346F346C3461342E340034EA
:080C20004E3461344E340034FF
:080C280049344E344634003417
:040C30003034003428
:100C340048347A34203420342034203420340034AE
:04400E00F22F000786
:00000001FF
