:020000040000FA
:060000008A110A12092812
:060008008A110A122828EB
:02000E000034BC
:020010000034BA
:0E0012008316031387018801831203138701ED
:10002000880103010030B8000830B9000730BA0079
:100030000030B0000130B1000230B2000330B30034
:100040000430B4000530B5008A110A123620242885
:10005000A200030E8301A0000A08A1008A01210862
:100060008A00200E8300A20E220E090083120313C1
:100070000130A500831203133030A3003A08840036
:10008000381C4528FF308000462880018312031366
:10009000230884000008682083120313A400390891
:1000A00084002408800038188009831203133A085A
:1000B0008400381C5D2825095E2825088000A50DD0
:1000C00083120313A30A2308383A031908003E28B1
:1000D0008207C034F934A434B03499349234823471
:0800E000F83480349034FF3441
:00000001FF
